{
  "contractName": "Counter",
  "abi": [
    {
      "inputs": [],
      "name": "decrementCounter",
      "outputs": [
        {
          "internalType": "uint256",
          "name": "",
          "type": "uint256"
        }
      ],
      "stateMutability": "nonpayable",
      "type": "function"
    },
    {
      "inputs": [],
      "name": "incrementCounter",
      "outputs": [
        {
          "internalType": "uint256",
          "name": "",
          "type": "uint256"
        }
      ],
      "stateMutability": "nonpayable",
      "type": "function"
    },
    {
      "inputs": [],
      "name": "reset",
      "outputs": [],
      "stateMutability": "nonpayable",
      "type": "function"
    },
    {
      "inputs": [],
      "name": "getCounter",
      "outputs": [
        {
          "internalType": "uint256",
          "name": "",
          "type": "uint256"
        }
      ],
      "stateMutability": "view",
      "type": "function"
    }
  ],
  "bytecode": "0x608060405234801561001057600080fd5b5061011b806100206000396000f3fe6080604052348015600f57600080fd5b506004361060465760003560e01c80635b34b96614604b5780638ada066e146067578063d826f88f146083578063f5c5ad8314608b575b600080fd5b605160a7565b6040518082815260200191505060405180910390f35b606d60bd565b6040518082815260200191505060405180910390f35b608960c6565b005b609160cf565b6040518082815260200191505060405180910390f35b6000600160005401600081905550600054905090565b60008054905090565b60008081905550565b600060016000540360008190555060005490509056fea264697066735822122011b245b0cee54b9786367949a4fa564ef981fcb9c0b208a748c71ba92abb401e64736f6c63430006040033",
  "source": "pragma solidity ^0.6.0;\r\n\r\ncontract Counter {\r\n\r\n    uint256 counter;\r\n\r\n    function decrementCounter() public returns (uint256) {\r\n        counter = counter - 1;\r\n        return counter;\r\n    }\r\n    \r\n    function incrementCounter() public returns (uint256) {\r\n        counter = counter + 1;\r\n        return counter;\r\n    }\r\n    \r\n    function reset() public {\r\n        counter = 0;\r\n    }\r\n    \r\n    function getCounter() public view returns (uint256){\r\n        return counter;\r\n    }\r\n}",
  "sourcePath": "C:/Users/ealmario/Documents/Portfolio Stuff/Outplay Games/game3.js/contracts/Counter.sol",
  "compiler": {
    "name": "solc",
    "version": "0.6.4+commit.1dca32f3.Emscripten.clang"
  },
  "schemaVersion": "3.2.2",
  "updatedAt": "2020-09-29T09:37:56.534Z",
  "devdoc": {
    "methods": {}
  },
  "userdoc": {
    "methods": {}
  }
}