{
  "contractName": "CryptoPizza",
  "abi": [
    {
      "anonymous": false,
      "inputs": [
        {
          "indexed": true,
          "internalType": "address",
          "name": "owner",
          "type": "address"
        },
        {
          "indexed": true,
          "internalType": "address",
          "name": "approved",
          "type": "address"
        },
        {
          "indexed": true,
          "internalType": "uint256",
          "name": "tokenId",
          "type": "uint256"
        }
      ],
      "name": "Approval",
      "type": "event"
    },
    {
      "anonymous": false,
      "inputs": [
        {
          "indexed": true,
          "internalType": "address",
          "name": "owner",
          "type": "address"
        },
        {
          "indexed": true,
          "internalType": "address",
          "name": "operator",
          "type": "address"
        },
        {
          "indexed": false,
          "internalType": "bool",
          "name": "approved",
          "type": "bool"
        }
      ],
      "name": "ApprovalForAll",
      "type": "event"
    },
    {
      "anonymous": false,
      "inputs": [
        {
          "indexed": true,
          "internalType": "address",
          "name": "from",
          "type": "address"
        },
        {
          "indexed": true,
          "internalType": "address",
          "name": "to",
          "type": "address"
        },
        {
          "indexed": true,
          "internalType": "uint256",
          "name": "tokenId",
          "type": "uint256"
        }
      ],
      "name": "Transfer",
      "type": "event"
    },
    {
      "inputs": [
        {
          "internalType": "address",
          "name": "",
          "type": "address"
        }
      ],
      "name": "ownerPizzaCount",
      "outputs": [
        {
          "internalType": "uint256",
          "name": "",
          "type": "uint256"
        }
      ],
      "stateMutability": "view",
      "type": "function"
    },
    {
      "inputs": [
        {
          "internalType": "uint256",
          "name": "",
          "type": "uint256"
        }
      ],
      "name": "pizzaToOwner",
      "outputs": [
        {
          "internalType": "address",
          "name": "",
          "type": "address"
        }
      ],
      "stateMutability": "view",
      "type": "function"
    },
    {
      "inputs": [
        {
          "internalType": "uint256",
          "name": "",
          "type": "uint256"
        }
      ],
      "name": "pizzas",
      "outputs": [
        {
          "internalType": "string",
          "name": "name",
          "type": "string"
        },
        {
          "internalType": "uint256",
          "name": "dna",
          "type": "uint256"
        }
      ],
      "stateMutability": "view",
      "type": "function"
    },
    {
      "inputs": [
        {
          "internalType": "bytes4",
          "name": "interfaceId",
          "type": "bytes4"
        }
      ],
      "name": "supportsInterface",
      "outputs": [
        {
          "internalType": "bool",
          "name": "",
          "type": "bool"
        }
      ],
      "stateMutability": "view",
      "type": "function"
    },
    {
      "inputs": [
        {
          "internalType": "string",
          "name": "_name",
          "type": "string"
        }
      ],
      "name": "createRandomPizza",
      "outputs": [],
      "stateMutability": "nonpayable",
      "type": "function"
    },
    {
      "inputs": [
        {
          "internalType": "string",
          "name": "_str",
          "type": "string"
        },
        {
          "internalType": "address",
          "name": "_owner",
          "type": "address"
        }
      ],
      "name": "generateRandomDna",
      "outputs": [
        {
          "internalType": "uint256",
          "name": "",
          "type": "uint256"
        }
      ],
      "stateMutability": "pure",
      "type": "function"
    },
    {
      "inputs": [
        {
          "internalType": "address",
          "name": "_owner",
          "type": "address"
        }
      ],
      "name": "getPizzasByOwner",
      "outputs": [
        {
          "internalType": "uint256[]",
          "name": "",
          "type": "uint256[]"
        }
      ],
      "stateMutability": "view",
      "type": "function"
    },
    {
      "inputs": [
        {
          "internalType": "address",
          "name": "_from",
          "type": "address"
        },
        {
          "internalType": "address",
          "name": "_to",
          "type": "address"
        },
        {
          "internalType": "uint256",
          "name": "_pizzaId",
          "type": "uint256"
        }
      ],
      "name": "transferFrom",
      "outputs": [],
      "stateMutability": "nonpayable",
      "type": "function"
    },
    {
      "inputs": [
        {
          "internalType": "address",
          "name": "from",
          "type": "address"
        },
        {
          "internalType": "address",
          "name": "to",
          "type": "address"
        },
        {
          "internalType": "uint256",
          "name": "pizzaId",
          "type": "uint256"
        }
      ],
      "name": "safeTransferFrom",
      "outputs": [],
      "stateMutability": "nonpayable",
      "type": "function"
    },
    {
      "inputs": [
        {
          "internalType": "address",
          "name": "from",
          "type": "address"
        },
        {
          "internalType": "address",
          "name": "to",
          "type": "address"
        },
        {
          "internalType": "uint256",
          "name": "pizzaId",
          "type": "uint256"
        },
        {
          "internalType": "bytes",
          "name": "_data",
          "type": "bytes"
        }
      ],
      "name": "safeTransferFrom",
      "outputs": [],
      "stateMutability": "nonpayable",
      "type": "function"
    },
    {
      "inputs": [
        {
          "internalType": "uint256",
          "name": "_pizzaId",
          "type": "uint256"
        }
      ],
      "name": "burn",
      "outputs": [],
      "stateMutability": "nonpayable",
      "type": "function"
    },
    {
      "inputs": [
        {
          "internalType": "address",
          "name": "_owner",
          "type": "address"
        }
      ],
      "name": "balanceOf",
      "outputs": [
        {
          "internalType": "uint256",
          "name": "_balance",
          "type": "uint256"
        }
      ],
      "stateMutability": "view",
      "type": "function"
    },
    {
      "inputs": [
        {
          "internalType": "uint256",
          "name": "_pizzaId",
          "type": "uint256"
        }
      ],
      "name": "ownerOf",
      "outputs": [
        {
          "internalType": "address",
          "name": "_owner",
          "type": "address"
        }
      ],
      "stateMutability": "view",
      "type": "function"
    },
    {
      "inputs": [
        {
          "internalType": "address",
          "name": "_to",
          "type": "address"
        },
        {
          "internalType": "uint256",
          "name": "_pizzaId",
          "type": "uint256"
        }
      ],
      "name": "approve",
      "outputs": [],
      "stateMutability": "nonpayable",
      "type": "function"
    },
    {
      "inputs": [
        {
          "internalType": "uint256",
          "name": "_pizzaId",
          "type": "uint256"
        }
      ],
      "name": "getApproved",
      "outputs": [
        {
          "internalType": "address",
          "name": "operator",
          "type": "address"
        }
      ],
      "stateMutability": "view",
      "type": "function"
    },
    {
      "inputs": [
        {
          "internalType": "address",
          "name": "to",
          "type": "address"
        },
        {
          "internalType": "bool",
          "name": "approved",
          "type": "bool"
        }
      ],
      "name": "setApprovalForAll",
      "outputs": [],
      "stateMutability": "nonpayable",
      "type": "function"
    },
    {
      "inputs": [
        {
          "internalType": "address",
          "name": "owner",
          "type": "address"
        },
        {
          "internalType": "address",
          "name": "operator",
          "type": "address"
        }
      ],
      "name": "isApprovedForAll",
      "outputs": [
        {
          "internalType": "bool",
          "name": "",
          "type": "bool"
        }
      ],
      "stateMutability": "view",
      "type": "function"
    },
    {
      "inputs": [
        {
          "internalType": "uint256",
          "name": "_pizzaId",
          "type": "uint256"
        }
      ],
      "name": "takeOwnership",
      "outputs": [],
      "stateMutability": "nonpayable",
      "type": "function"
    }
  ],
  "bytecode": "0x608060405261001a6301ffc9a760e01b61001f60201b60201c565b610127565b63ffffffff60e01b817bffffffffffffffffffffffffffffffffffffffffffffffffffffffff191614156100bb576040517f08c379a000000000000000000000000000000000000000000000000000000000815260040180806020018281038252601c8152602001807f4552433136353a20696e76616c696420696e746572666163652069640000000081525060200191505060405180910390fd5b6001600080837bffffffffffffffffffffffffffffffffffffffffffffffffffffffff19167bffffffffffffffffffffffffffffffffffffffffffffffffffffffff1916815260200190815260200160002060006101000a81548160ff02191690831515021790555050565b612a71806101366000396000f3fe608060405234801561001057600080fd5b50600436106101165760003560e01c80636b67a1b2116100a2578063b2e6ceeb11610071578063b2e6ceeb14610700578063b88d4fde1461072e578063ce7b7d0314610833578063e985e9c5146108ee578063ff59cf241461096a57610116565b80636b67a1b21461051157806370a08231146105bf5780639cde8ffe14610617578063a22cb465146106b057610116565b80633476a467116100e95780633476a467146102aa5780633ac053f91461031857806342842e0e1461040757806342966c68146104755780636352211e146104a357610116565b806301ffc9a71461011b578063081812fc14610180578063095ea7b3146101ee57806323b872dd1461023c575b600080fd5b6101666004803603602081101561013157600080fd5b8101908080357bffffffffffffffffffffffffffffffffffffffffffffffffffffffff191690602001909291905050506109c2565b604051808215151515815260200191505060405180910390f35b6101ac6004803603602081101561019657600080fd5b8101908080359060200190929190505050610a29565b604051808273ffffffffffffffffffffffffffffffffffffffff1673ffffffffffffffffffffffffffffffffffffffff16815260200191505060405180910390f35b61023a6004803603604081101561020457600080fd5b81019080803573ffffffffffffffffffffffffffffffffffffffff16906020019092919080359060200190929190505050610ae1565b005b6102a86004803603606081101561025257600080fd5b81019080803573ffffffffffffffffffffffffffffffffffffffff169060200190929190803573ffffffffffffffffffffffffffffffffffffffff16906020019092919080359060200190929190505050610c66565b005b6102d6600480360360208110156102c057600080fd5b8101908080359060200190929190505050611094565b604051808273ffffffffffffffffffffffffffffffffffffffff1673ffffffffffffffffffffffffffffffffffffffff16815260200191505060405180910390f35b6103f16004803603604081101561032e57600080fd5b810190808035906020019064010000000081111561034b57600080fd5b82018360208201111561035d57600080fd5b8035906020019184600183028401116401000000008311171561037f57600080fd5b91908080601f016020809104026020016040519081016040528093929190818152602001838380828437600081840152601f19601f820116905080830192505050505050509192919290803573ffffffffffffffffffffffffffffffffffffffff1690602001909291905050506110c7565b6040518082815260200191505060405180910390f35b6104736004803603606081101561041d57600080fd5b81019080803573ffffffffffffffffffffffffffffffffffffffff169060200190929190803573ffffffffffffffffffffffffffffffffffffffff16906020019092919080359060200190929190505050611172565b005b6104a16004803603602081101561048b57600080fd5b810190808035906020019092919050505061125e565b005b6104cf600480360360208110156104b957600080fd5b81019080803590602001909291905050506114db565b604051808273ffffffffffffffffffffffffffffffffffffffff1673ffffffffffffffffffffffffffffffffffffffff16815260200191505060405180910390f35b61053d6004803603602081101561052757600080fd5b81019080803590602001909291905050506115c0565b6040518080602001838152602001828103825284818151815260200191508051906020019080838360005b83811015610583578082015181840152602081019050610568565b50505050905090810190601f1680156105b05780820380516001836020036101000a031916815260200191505b50935050505060405180910390f35b610601600480360360208110156105d557600080fd5b81019080803573ffffffffffffffffffffffffffffffffffffffff169060200190929190505050611689565b6040518082815260200191505060405180910390f35b6106596004803603602081101561062d57600080fd5b81019080803573ffffffffffffffffffffffffffffffffffffffff1690602001909291905050506116d2565b6040518080602001828103825283818151815260200191508051906020019060200280838360005b8381101561069c578082015181840152602081019050610681565b505050509050019250505060405180910390f35b6106fe600480360360408110156106c657600080fd5b81019080803573ffffffffffffffffffffffffffffffffffffffff1690602001909291908035151590602001909291905050506117ff565b005b61072c6004803603602081101561071657600080fd5b81019080803590602001909291905050506119a2565b005b6108316004803603608081101561074457600080fd5b81019080803573ffffffffffffffffffffffffffffffffffffffff169060200190929190803573ffffffffffffffffffffffffffffffffffffffff16906020019092919080359060200190929190803590602001906401000000008111156107ab57600080fd5b8201836020820111156107bd57600080fd5b803590602001918460018302840111640100000000831117156107df57600080fd5b91908080601f016020809104026020016040519081016040528093929190818152602001838380828437600081840152601f19601f820116905080830192505050505050509192919290505050611b85565b005b6108ec6004803603602081101561084957600080fd5b810190808035906020019064010000000081111561086657600080fd5b82018360208201111561087857600080fd5b8035906020019184600183028401116401000000008311171561089a57600080fd5b91908080601f016020809104026020016040519081016040528093929190818152602001838380828437600081840152601f19601f820116905080830192505050505050509192919290505050611cbf565b005b6109506004803603604081101561090457600080fd5b81019080803573ffffffffffffffffffffffffffffffffffffffff169060200190929190803573ffffffffffffffffffffffffffffffffffffffff169060200190929190505050611cdb565b604051808215151515815260200191505060405180910390f35b6109ac6004803603602081101561098057600080fd5b81019080803573ffffffffffffffffffffffffffffffffffffffff169060200190929190505050611d6f565b6040518082815260200191505060405180910390f35b6000806000837bffffffffffffffffffffffffffffffffffffffffffffffffffffffff19167bffffffffffffffffffffffffffffffffffffffffffffffffffffffff1916815260200190815260200160002060009054906101000a900460ff169050919050565b6000610a3482611d87565b610aa6576040517f08c379a00000000000000000000000000000000000000000000000000000000081526004018080602001828103825260158152602001807f50697a7a6120646f6573206e6f742065786973742e000000000000000000000081525060200191505060405180910390fd5b6004600083815260200190815260200160002060009054906101000a900473ffffffffffffffffffffffffffffffffffffffff169050919050565b6002600082815260200190815260200160002060009054906101000a900473ffffffffffffffffffffffffffffffffffffffff1673ffffffffffffffffffffffffffffffffffffffff163373ffffffffffffffffffffffffffffffffffffffff1614610bb5576040517f08c379a00000000000000000000000000000000000000000000000000000000081526004018080602001828103825260188152602001807f4d757374206265207468652050697a7a61206f776e65722e000000000000000081525060200191505060405180910390fd5b816004600083815260200190815260200160002060006101000a81548173ffffffffffffffffffffffffffffffffffffffff021916908373ffffffffffffffffffffffffffffffffffffffff160217905550808273ffffffffffffffffffffffffffffffffffffffff163373ffffffffffffffffffffffffffffffffffffffff167f8c5be1e5ebec7d5bd14f71427d1e84f3dd0314c0f7b2291e5b200ac8c7c3b92560405160405180910390a45050565b600073ffffffffffffffffffffffffffffffffffffffff168373ffffffffffffffffffffffffffffffffffffffff1614158015610cd05750600073ffffffffffffffffffffffffffffffffffffffff168273ffffffffffffffffffffffffffffffffffffffff1614155b610d42576040517f08c379a00000000000000000000000000000000000000000000000000000000081526004018080602001828103825260108152602001807f496e76616c696420616464726573732e0000000000000000000000000000000081525060200191505060405180910390fd5b610d4b81611d87565b610dbd576040517f08c379a00000000000000000000000000000000000000000000000000000000081526004018080602001828103825260158152602001807f50697a7a6120646f6573206e6f742065786973742e000000000000000000000081525060200191505060405180910390fd5b8173ffffffffffffffffffffffffffffffffffffffff168373ffffffffffffffffffffffffffffffffffffffff161415610e42576040517f08c379a00000000000000000000000000000000000000000000000000000000081526004018080602001828103825260248152602001806129f46024913960400191505060405180910390fd5b610e4c3382611df9565b610ebe576040517f08c379a00000000000000000000000000000000000000000000000000000000081526004018080602001828103825260188152602001807f41646472657373206973206e6f7420617070726f7665642e000000000000000081525060200191505060405180910390fd5b610f08600360008473ffffffffffffffffffffffffffffffffffffffff1673ffffffffffffffffffffffffffffffffffffffff16815260200190815260200160002054600161201e565b600360008473ffffffffffffffffffffffffffffffffffffffff1673ffffffffffffffffffffffffffffffffffffffff16815260200190815260200160002081905550610f95600360008573ffffffffffffffffffffffffffffffffffffffff1673ffffffffffffffffffffffffffffffffffffffff1681526020019081526020016000205460016120a6565b600360008573ffffffffffffffffffffffffffffffffffffffff1673ffffffffffffffffffffffffffffffffffffffff16815260200190815260200160002081905550816002600083815260200190815260200160002060006101000a81548173ffffffffffffffffffffffffffffffffffffffff021916908373ffffffffffffffffffffffffffffffffffffffff160217905550808273ffffffffffffffffffffffffffffffffffffffff168473ffffffffffffffffffffffffffffffffffffffff167fddf252ad1be2c89b69c2b068fc378daa952ba7f163c4a11628f55a4df523b3ef60405160405180910390a461108f82826120f0565b505050565b60026020528060005260406000206000915054906101000a900473ffffffffffffffffffffffffffffffffffffffff1681565b6000808273ffffffffffffffffffffffffffffffffffffffff16846040516020018082805190602001908083835b6020831061111857805182526020820191506020810190506020830392506110f5565b6001836020036101000a0380198251168184511680821785525050505050509050019150506040516020818303038152906040528051906020012060001c019050600a800a818161116557fe5b0690508091505092915050565b3073ffffffffffffffffffffffffffffffffffffffff1663b88d4fde8484846040518463ffffffff1660e01b8152600401808473ffffffffffffffffffffffffffffffffffffffff1673ffffffffffffffffffffffffffffffffffffffff1681526020018373ffffffffffffffffffffffffffffffffffffffff1673ffffffffffffffffffffffffffffffffffffffff16815260200182815260200180602001828103825260008152602001602001945050505050600060405180830381600087803b15801561124157600080fd5b505af1158015611255573d6000803e3d6000fd5b50505050505050565b600073ffffffffffffffffffffffffffffffffffffffff163373ffffffffffffffffffffffffffffffffffffffff161415611301576040517f08c379a00000000000000000000000000000000000000000000000000000000081526004018080602001828103825260108152602001807f496e76616c696420616464726573732e0000000000000000000000000000000081525060200191505060405180910390fd5b61130a81611d87565b61137c576040517f08c379a00000000000000000000000000000000000000000000000000000000081526004018080602001828103825260158152602001807f50697a7a6120646f6573206e6f742065786973742e000000000000000000000081525060200191505060405180910390fd5b6113863382611df9565b6113f8576040517f08c379a00000000000000000000000000000000000000000000000000000000081526004018080602001828103825260188152602001807f41646472657373206973206e6f7420617070726f7665642e000000000000000081525060200191505060405180910390fd5b611442600360003373ffffffffffffffffffffffffffffffffffffffff1673ffffffffffffffffffffffffffffffffffffffff1681526020019081526020016000205460016120a6565b600360003373ffffffffffffffffffffffffffffffffffffffff1673ffffffffffffffffffffffffffffffffffffffff1681526020019081526020016000208190555060006002600083815260200190815260200160002060006101000a81548173ffffffffffffffffffffffffffffffffffffffff021916908373ffffffffffffffffffffffffffffffffffffffff16021790555050565b6000806002600084815260200190815260200160002060009054906101000a900473ffffffffffffffffffffffffffffffffffffffff169050600073ffffffffffffffffffffffffffffffffffffffff168173ffffffffffffffffffffffffffffffffffffffff1614156115b7576040517f08c379a00000000000000000000000000000000000000000000000000000000081526004018080602001828103825260118152602001807f496e76616c69642050697a7a612049442e00000000000000000000000000000081525060200191505060405180910390fd5b80915050919050565b600181815481106115cd57fe5b9060005260206000209060020201600091509050806000018054600181600116156101000203166002900480601f0160208091040260200160405190810160405280929190818152602001828054600181600116156101000203166002900480156116795780601f1061164e57610100808354040283529160200191611679565b820191906000526020600020905b81548152906001019060200180831161165c57829003601f168201915b5050505050908060010154905082565b6000600360008373ffffffffffffffffffffffffffffffffffffffff1673ffffffffffffffffffffffffffffffffffffffff168152602001908152602001600020549050919050565b606080600360008473ffffffffffffffffffffffffffffffffffffffff1673ffffffffffffffffffffffffffffffffffffffff168152602001908152602001600020546040519080825280602002602001820160405280156117435781602001602082028036833780820191505090505b509050600080905060008090505b6001805490508110156117f4578473ffffffffffffffffffffffffffffffffffffffff166002600083815260200190815260200160002060009054906101000a900473ffffffffffffffffffffffffffffffffffffffff1673ffffffffffffffffffffffffffffffffffffffff1614156117e757808383815181106117d257fe5b60200260200101818152505081806001019250505b8080600101915050611751565b508192505050919050565b3373ffffffffffffffffffffffffffffffffffffffff168273ffffffffffffffffffffffffffffffffffffffff1614156118a1576040517f08c379a000000000000000000000000000000000000000000000000000000000815260040180806020018281038252601a8152602001807f43616e6e6f7420617070726f7665206f776e206164647265737300000000000081525060200191505060405180910390fd5b80600560003373ffffffffffffffffffffffffffffffffffffffff1673ffffffffffffffffffffffffffffffffffffffff16815260200190815260200160002060008473ffffffffffffffffffffffffffffffffffffffff1673ffffffffffffffffffffffffffffffffffffffff16815260200190815260200160002060006101000a81548160ff0219169083151502179055508173ffffffffffffffffffffffffffffffffffffffff163373ffffffffffffffffffffffffffffffffffffffff167f17307eab39ab6107e8899845ad3d59bd9653f200f220920489ca2b5937696c3183604051808215151515815260200191505060405180910390a35050565b6119ac3382611df9565b611a1e576040517f08c379a00000000000000000000000000000000000000000000000000000000081526004018080602001828103825260188152602001807f41646472657373206973206e6f7420617070726f7665642e000000000000000081525060200191505060405180910390fd5b60003073ffffffffffffffffffffffffffffffffffffffff16636352211e836040518263ffffffff1660e01b81526004018082815260200191505060206040518083038186803b158015611a7157600080fd5b505afa158015611a85573d6000803e3d6000fd5b505050506040513d6020811015611a9b57600080fd5b810190808051906020019092919050505090503073ffffffffffffffffffffffffffffffffffffffff166323b872dd8233856040518463ffffffff1660e01b8152600401808473ffffffffffffffffffffffffffffffffffffffff1673ffffffffffffffffffffffffffffffffffffffff1681526020018373ffffffffffffffffffffffffffffffffffffffff1673ffffffffffffffffffffffffffffffffffffffff1681526020018281526020019350505050600060405180830381600087803b158015611b6957600080fd5b505af1158015611b7d573d6000803e3d6000fd5b505050505050565b3073ffffffffffffffffffffffffffffffffffffffff166323b872dd8585856040518463ffffffff1660e01b8152600401808473ffffffffffffffffffffffffffffffffffffffff1673ffffffffffffffffffffffffffffffffffffffff1681526020018373ffffffffffffffffffffffffffffffffffffffff1673ffffffffffffffffffffffffffffffffffffffff1681526020018281526020019350505050600060405180830381600087803b158015611c4057600080fd5b505af1158015611c54573d6000803e3d6000fd5b50505050611c64848484846122fe565b611cb9576040517f08c379a00000000000000000000000000000000000000000000000000000000081526004018080602001828103825260218152602001806129d36021913960400191505060405180910390fd5b50505050565b6000611ccb82336110c7565b9050611cd782826124d1565b5050565b6000600560008473ffffffffffffffffffffffffffffffffffffffff1673ffffffffffffffffffffffffffffffffffffffff16815260200190815260200160002060008373ffffffffffffffffffffffffffffffffffffffff1673ffffffffffffffffffffffffffffffffffffffff16815260200190815260200160002060009054906101000a900460ff16905092915050565b60036020528060005260406000206000915090505481565b6000806002600084815260200190815260200160002060009054906101000a900473ffffffffffffffffffffffffffffffffffffffff169050600073ffffffffffffffffffffffffffffffffffffffff168173ffffffffffffffffffffffffffffffffffffffff161415915050919050565b6000806002600084815260200190815260200160002060009054906101000a900473ffffffffffffffffffffffffffffffffffffffff1690508073ffffffffffffffffffffffffffffffffffffffff168473ffffffffffffffffffffffffffffffffffffffff161480611f2257508373ffffffffffffffffffffffffffffffffffffffff163073ffffffffffffffffffffffffffffffffffffffff1663081812fc856040518263ffffffff1660e01b81526004018082815260200191505060206040518083038186803b158015611ecf57600080fd5b505afa158015611ee3573d6000803e3d6000fd5b505050506040513d6020811015611ef957600080fd5b810190808051906020019092919050505073ffffffffffffffffffffffffffffffffffffffff16145b8061201557503073ffffffffffffffffffffffffffffffffffffffff1663e985e9c582866040518363ffffffff1660e01b8152600401808373ffffffffffffffffffffffffffffffffffffffff1673ffffffffffffffffffffffffffffffffffffffff1681526020018273ffffffffffffffffffffffffffffffffffffffff1673ffffffffffffffffffffffffffffffffffffffff1681526020019250505060206040518083038186803b158015611fd957600080fd5b505afa158015611fed573d6000803e3d6000fd5b505050506040513d602081101561200357600080fd5b81019080805190602001909291905050505b91505092915050565b60008082840190508381101561209c576040517f08c379a000000000000000000000000000000000000000000000000000000000815260040180806020018281038252601b8152602001807f536166654d6174683a206164646974696f6e206f766572666c6f77000000000081525060200191505060405180910390fd5b8091505092915050565b60006120e883836040518060400160405280601e81526020017f536166654d6174683a207375627472616374696f6e206f766572666c6f77000081525061285a565b905092915050565b8173ffffffffffffffffffffffffffffffffffffffff166002600083815260200190815260200160002060009054906101000a900473ffffffffffffffffffffffffffffffffffffffff1673ffffffffffffffffffffffffffffffffffffffff16146121c4576040517f08c379a00000000000000000000000000000000000000000000000000000000081526004018080602001828103825260148152602001807f4d7573742062652070697a7a61206f776e65722e00000000000000000000000081525060200191505060405180910390fd5b6121cd81611d87565b61223f576040517f08c379a00000000000000000000000000000000000000000000000000000000081526004018080602001828103825260158152602001807f50697a7a6120646f6573206e6f742065786973742e000000000000000000000081525060200191505060405180910390fd5b600073ffffffffffffffffffffffffffffffffffffffff166004600083815260200190815260200160002060009054906101000a900473ffffffffffffffffffffffffffffffffffffffff1673ffffffffffffffffffffffffffffffffffffffff16146122fa5760006004600083815260200190815260200160002060006101000a81548173ffffffffffffffffffffffffffffffffffffffff021916908373ffffffffffffffffffffffffffffffffffffffff1602179055505b5050565b60006123098461291a565b61231657600190506124c9565b60008473ffffffffffffffffffffffffffffffffffffffff1663150b7a02338887876040518563ffffffff1660e01b8152600401808573ffffffffffffffffffffffffffffffffffffffff1673ffffffffffffffffffffffffffffffffffffffff1681526020018473ffffffffffffffffffffffffffffffffffffffff1673ffffffffffffffffffffffffffffffffffffffff16815260200183815260200180602001828103825283818151815260200191508051906020019080838360005b838110156123f15780820151818401526020810190506123d6565b50505050905090810190601f16801561241e5780820380516001836020036101000a031916815260200191505b5095505050505050602060405180830381600087803b15801561244057600080fd5b505af1158015612454573d6000803e3d6000fd5b505050506040513d602081101561246a57600080fd5b8101908080519060200190929190505050905063150b7a0260e01b7bffffffffffffffffffffffffffffffffffffffffffffffffffffffff1916817bffffffffffffffffffffffffffffffffffffffffffffffffffffffff1916149150505b949350505050565b818160006001905060008090505b60018054905081101561263657836040516020018082805190602001908083835b602083106125235780518252602082019150602081019050602083039250612500565b6001836020036101000a038019825116818451168082178552505050505050905001915050604051602081830303815290604052805190602001206001828154811061256b57fe5b906000526020600020906002020160000160405160200180828054600181600116156101000203166002900480156125da5780601f106125b85761010080835404028352918201916125da565b820191906000526020600020905b8154815290600101906020018083116125c6575b50509150506040516020818303038152906040528051906020012014801561261f5750826001828154811061260b57fe5b906000526020600020906002020160010154145b1561262957600091505b80806001019150506124df565b508061268d576040517f08c379a0000000000000000000000000000000000000000000000000000000008152600401808060200182810382526024815260200180612a186024913960400191505060405180910390fd5b6001604051806040016040528087815260200186815250908060018154018082558091505060019003906000526020600020906002020160009091909190915060008201518160000190805190602001906126e992919061292d565b50602082015181600101555050600061270860018054905060016120a6565b9050600073ffffffffffffffffffffffffffffffffffffffff166002600083815260200190815260200160002060009054906101000a900473ffffffffffffffffffffffffffffffffffffffff1673ffffffffffffffffffffffffffffffffffffffff161461277357fe5b336002600083815260200190815260200160002060006101000a81548173ffffffffffffffffffffffffffffffffffffffff021916908373ffffffffffffffffffffffffffffffffffffffff16021790555061280f600360003373ffffffffffffffffffffffffffffffffffffffff1673ffffffffffffffffffffffffffffffffffffffff16815260200190815260200160002054600161201e565b600360003373ffffffffffffffffffffffffffffffffffffffff1673ffffffffffffffffffffffffffffffffffffffff16815260200190815260200160002081905550505050505050565b6000838311158290612907576040517f08c379a00000000000000000000000000000000000000000000000000000000081526004018080602001828103825283818151815260200191508051906020019080838360005b838110156128cc5780820151818401526020810190506128b1565b50505050905090810190601f1680156128f95780820380516001836020036101000a031916815260200191505b509250505060405180910390fd5b5060008385039050809150509392505050565b600080823b905060008111915050919050565b828054600181600116156101000203166002900490600052602060002090601f016020900481019282601f1061296e57805160ff191683800117855561299c565b8280016001018555821561299c579182015b8281111561299b578251825591602001919060010190612980565b5b5090506129a991906129ad565b5090565b6129cf91905b808211156129cb5760008160009055506001016129b3565b5090565b9056fe4d75737420696d706c6d656d656e74206f6e45524337323152656365697665642e43616e6e6f74207472616e7366657220746f207468652073616d6520616464726573732e50697a7a6120776974682073756368206e616d6520616c7265616479206578697374732ea264697066735822122068e0ea8abff339598043b72df5db1f4b5f26ba422aa81c88a8fbe951a6b20f7964736f6c63430006040033",
  "source": "pragma solidity ^0.6.0;\r\n\r\n// Imports symbols from other files into the current contract.\r\n// In this case, a series of helper contracts from OpenZeppelin.\r\n// Learn more: https://solidity.readthedocs.io/en/v0.5.10/layout-of-source-files.html#importing-other-source-files\r\nimport \"../node_modules/@openzeppelin/contracts/token/ERC721/IERC721.sol\";\r\nimport \"../node_modules/@openzeppelin/contracts/token/ERC721/IERC721Receiver.sol\";\r\nimport \"../node_modules/@openzeppelin/contracts/introspection/ERC165.sol\";\r\nimport \"../node_modules/@openzeppelin/contracts/math/SafeMath.sol\";\r\n\r\n// The `is` keyword is used to inherit functions and keywords from external contracts.\r\n// In this case, `CryptoPizza` inherits from the `IERC721` and `ERC165` contracts.\r\n// Learn more: https://solidity.readthedocs.io/en/v0.5.10/contracts.html#inheritance\r\ncontract CryptoPizza is IERC721, ERC165 {\r\n    // Uses OpenZeppelin's SafeMath library to perform arithmetic operations safely.\r\n    // Learn more: https://docs.openzeppelin.com/contracts/2.x/api/math#SafeMath\r\n    using SafeMath for uint256;\r\n\r\n    // Constant state variables in Solidity are similar to other languages\r\n    // but you must assign from an expression which is constant at compile time.\r\n    // Learn more: https://solidity.readthedocs.io/en/v0.5.10/contracts.html#constant-state-variables\r\n    uint256 constant dnaDigits = 10;\r\n    uint256 constant dnaModulus = 10 ** dnaDigits;\r\n    bytes4 private constant _ERC721_RECEIVED = 0x150b7a02;\r\n\r\n    // Struct types let you define your own type\r\n    // Learn more: https://solidity.readthedocs.io/en/v0.5.10/types.html#structs\r\n    struct Pizza {\r\n        string name;\r\n        uint256 dna;\r\n    }\r\n\r\n    // Creates an empty array of Pizza structs\r\n    Pizza[] public pizzas;\r\n\r\n    // Mapping from owner's address to id of Pizza\r\n    mapping(uint256 => address) public pizzaToOwner;\r\n\r\n    // Mapping from owner's address to number of owned token\r\n    mapping(address => uint256) public ownerPizzaCount;\r\n\r\n    // Mapping from token ID to approved address\r\n    mapping(uint256 => address) pizzaApprovals;\r\n\r\n    // You can nest mappings, this example maps owner to operator approvals\r\n    mapping(address => mapping(address => bool)) private operatorApprovals;\r\n\r\n    // Internal function to create a random Pizza from string (name) and DNA\r\n    function _createPizza(string memory _name, uint256 _dna)\r\n        // The `internal` keyword means this function is only visible\r\n        // within this contract and contracts that derive this contract\r\n        // Learn more: https://solidity.readthedocs.io/en/v0.5.10/contracts.html#visibility-and-getters\r\n        internal\r\n        // `isUnique` is a function modifier that checks if the pizza already exists\r\n        // Learn more: https://solidity.readthedocs.io/en/v0.5.10/structure-of-a-contract.html#function-modifiers\r\n        isUnique(_name, _dna)\r\n    {\r\n        // Adds Pizza to array of Pizzas and get id\r\n        pizzas.push(Pizza(_name, _dna));\r\n        uint256 id = SafeMath.sub(pizzas.length, 1);\r\n\r\n        // Checks that Pizza owner is the same as current user\r\n        // Learn more: https://solidity.readthedocs.io/en/v0.5.10/control-structures.html#error-handling-assert-require-revert-and-exceptions\r\n        assert(pizzaToOwner[id] == address(0));\r\n\r\n        // Maps the Pizza to the owner\r\n        pizzaToOwner[id] = msg.sender;\r\n        ownerPizzaCount[msg.sender] = SafeMath.add(\r\n            ownerPizzaCount[msg.sender],\r\n            1\r\n        );\r\n    }\r\n\r\n    // Creates a random Pizza from string (name)\r\n    function createRandomPizza(string memory _name) public {\r\n        uint256 randDna = generateRandomDna(_name, msg.sender);\r\n        _createPizza(_name, randDna);\r\n    }\r\n\r\n    // Generates random DNA from string (name) and address of the owner (creator)\r\n    function generateRandomDna(string memory _str, address _owner)\r\n        public\r\n        // Functions marked as `pure` promise not to read from or modify the state\r\n        // Learn more: https://solidity.readthedocs.io/en/v0.5.10/contracts.html#pure-functions\r\n        pure\r\n        returns (uint256)\r\n    {\r\n        // Generates random uint from string (name) + address (owner)\r\n        uint256 rand = uint256(keccak256(abi.encodePacked(_str))) +\r\n            uint256(_owner);\r\n        rand = rand % dnaModulus;\r\n        return rand;\r\n    }\r\n\r\n    // Returns array of Pizzas found by owner\r\n    function getPizzasByOwner(address _owner)\r\n        public\r\n        // Functions marked as `view` promise not to modify state\r\n        // Learn more: https://solidity.readthedocs.io/en/v0.5.10/contracts.html#view-functions\r\n        view\r\n        returns (uint256[] memory)\r\n    {\r\n        // Uses the `memory` storage location to store values only for the\r\n        // lifecycle of this function call.\r\n        // Learn more: https://solidity.readthedocs.io/en/v0.5.10/introduction-to-smart-contracts.html#storage-memory-and-the-stack\r\n        uint256[] memory result = new uint256[](ownerPizzaCount[_owner]);\r\n        uint256 counter = 0;\r\n        for (uint256 i = 0; i < pizzas.length; i++) {\r\n            if (pizzaToOwner[i] == _owner) {\r\n                result[counter] = i;\r\n                counter++;\r\n            }\r\n        }\r\n        return result;\r\n    }\r\n\r\n    // Transfers Pizza and ownership to other address\r\n    function transferFrom(address _from, address _to, uint256 _pizzaId) public override {\r\n        require(_from != address(0) && _to != address(0), \"Invalid address.\");\r\n        require(_exists(_pizzaId), \"Pizza does not exist.\");\r\n        require(_from != _to, \"Cannot transfer to the same address.\");\r\n        require(_isApprovedOrOwner(msg.sender, _pizzaId), \"Address is not approved.\");\r\n\r\n        ownerPizzaCount[_to] = SafeMath.add(ownerPizzaCount[_to], 1);\r\n        ownerPizzaCount[_from] = SafeMath.sub(ownerPizzaCount[_from], 1);\r\n        pizzaToOwner[_pizzaId] = _to;\r\n\r\n        // Emits event defined in the imported IERC721 contract\r\n        emit Transfer(_from, _to, _pizzaId);\r\n        _clearApproval(_to, _pizzaId);\r\n    }\r\n\r\n    /**\r\n     * Safely transfers the ownership of a given token ID to another address\r\n     * If the target address is a contract, it must implement `onERC721Received`,\r\n     * which is called upon a safe transfer, and return the magic value\r\n     * `bytes4(keccak256(\"onERC721Received(address,address,uint256,bytes)\"))`;\r\n     * otherwise, the transfer is reverted.\r\n    */\r\n    function safeTransferFrom(address from, address to, uint256 pizzaId)\r\n        public override\r\n    {\r\n        // solium-disable-next-line arg-overflow\r\n        this.safeTransferFrom(from, to, pizzaId, \"\");\r\n    }\r\n\r\n    /**\r\n     * Safely transfers the ownership of a given token ID to another address\r\n     * If the target address is a contract, it must implement `onERC721Received`,\r\n     * which is called upon a safe transfer, and return the magic value\r\n     * `bytes4(keccak256(\"onERC721Received(address,address,uint256,bytes)\"))`;\r\n     * otherwise, the transfer is reverted.\r\n     */\r\n    function safeTransferFrom(\r\n        address from,\r\n        address to,\r\n        uint256 pizzaId,\r\n        bytes memory _data\r\n    ) public override {\r\n        this.transferFrom(from, to, pizzaId);\r\n        require(_checkOnERC721Received(from, to, pizzaId, _data), \"Must implmement onERC721Received.\");\r\n    }\r\n\r\n    /**\r\n     * Internal function to invoke `onERC721Received` on a target address\r\n     * The call is not executed if the target address is not a contract\r\n     */\r\n    function _checkOnERC721Received(\r\n        address from,\r\n        address to,\r\n        uint256 pizzaId,\r\n        bytes memory _data\r\n    ) internal returns (bool) {\r\n        if (!isContract(to)) {\r\n            return true;\r\n        }\r\n\r\n        bytes4 retval = IERC721Receiver(to).onERC721Received(\r\n            msg.sender,\r\n            from,\r\n            pizzaId,\r\n            _data\r\n        );\r\n        return (retval == _ERC721_RECEIVED);\r\n    }\r\n\r\n    // Burns a Pizza - destroys Token completely\r\n    // The `external` function modifier means this function is\r\n    // part of the contract interface and other contracts can call it\r\n    function burn(uint256 _pizzaId) external {\r\n        require(msg.sender != address(0), \"Invalid address.\");\r\n        require(_exists(_pizzaId), \"Pizza does not exist.\");\r\n        require(_isApprovedOrOwner(msg.sender, _pizzaId), \"Address is not approved.\");\r\n\r\n        ownerPizzaCount[msg.sender] = SafeMath.sub(\r\n            ownerPizzaCount[msg.sender],\r\n            1\r\n        );\r\n        pizzaToOwner[_pizzaId] = address(0);\r\n    }\r\n\r\n    // Returns count of Pizzas by address\r\n    function balanceOf(address _owner) public override view returns (uint256 _balance) {\r\n        return ownerPizzaCount[_owner];\r\n    }\r\n\r\n    // Returns owner of the Pizza found by id\r\n    function ownerOf(uint256 _pizzaId) public override view returns (address _owner) {\r\n        address owner = pizzaToOwner[_pizzaId];\r\n        require(owner != address(0), \"Invalid Pizza ID.\");\r\n        return owner;\r\n    }\r\n\r\n    // Approves other address to transfer ownership of Pizza\r\n    function approve(address _to, uint256 _pizzaId) public override {\r\n        require(msg.sender == pizzaToOwner[_pizzaId], \"Must be the Pizza owner.\");\r\n        pizzaApprovals[_pizzaId] = _to;\r\n        emit Approval(msg.sender, _to, _pizzaId);\r\n    }\r\n\r\n    // Returns approved address for specific Pizza\r\n    function getApproved(uint256 _pizzaId)\r\n        public\r\n        override\r\n        view\r\n        returns (address operator)\r\n    {\r\n        require(_exists(_pizzaId), \"Pizza does not exist.\");\r\n        return pizzaApprovals[_pizzaId];\r\n    }\r\n\r\n    /**\r\n     * Private function to clear current approval of a given token ID\r\n     * Reverts if the given address is not indeed the owner of the token\r\n     */\r\n    function _clearApproval(address owner, uint256 _pizzaId) private {\r\n        require(pizzaToOwner[_pizzaId] == owner, \"Must be pizza owner.\");\r\n        require(_exists(_pizzaId), \"Pizza does not exist.\");\r\n        if (pizzaApprovals[_pizzaId] != address(0)) {\r\n            pizzaApprovals[_pizzaId] = address(0);\r\n        }\r\n    }\r\n\r\n    /*\r\n     * Sets or unsets the approval of a given operator\r\n     * An operator is allowed to transfer all tokens of the sender on their behalf\r\n     */\r\n    function setApprovalForAll(address to, bool approved) public override {\r\n        require(to != msg.sender, \"Cannot approve own address\");\r\n        operatorApprovals[msg.sender][to] = approved;\r\n        emit ApprovalForAll(msg.sender, to, approved);\r\n    }\r\n\r\n    // Tells whether an operator is approved by a given owner\r\n    function isApprovedForAll(address owner, address operator)\r\n        public\r\n        override\r\n        view\r\n        returns (bool)\r\n    {\r\n        return operatorApprovals[owner][operator];\r\n    }\r\n\r\n    // Takes ownership of Pizza - only for approved users\r\n    function takeOwnership(uint256 _pizzaId) public {\r\n        require(_isApprovedOrOwner(msg.sender, _pizzaId), \"Address is not approved.\");\r\n        address owner = this.ownerOf(_pizzaId);\r\n        this.transferFrom(owner, msg.sender, _pizzaId);\r\n    }\r\n\r\n    // Checks if Pizza exists\r\n    function _exists(uint256 pizzaId) internal view returns (bool) {\r\n        address owner = pizzaToOwner[pizzaId];\r\n        return owner != address(0);\r\n    }\r\n\r\n    // Checks if address is owner or is approved to transfer Pizza\r\n    function _isApprovedOrOwner(address spender, uint256 pizzaId)\r\n        internal\r\n        view\r\n        returns (bool)\r\n    {\r\n        address owner = pizzaToOwner[pizzaId];\r\n        // Disable solium check because of\r\n        // https://github.com/duaraghav8/Solium/issues/175\r\n        // solium-disable-next-line operator-whitespace\r\n        return (spender == owner ||\r\n            this.getApproved(pizzaId) == spender ||\r\n            this.isApprovedForAll(owner, spender));\r\n    }\r\n\r\n    // Check if Pizza is unique and doesn't exist yet\r\n    modifier isUnique(string memory _name, uint256 _dna) {\r\n        bool result = true;\r\n        for (uint256 i = 0; i < pizzas.length; i++) {\r\n            if (\r\n                keccak256(abi.encodePacked(pizzas[i].name)) ==\r\n                keccak256(abi.encodePacked(_name)) &&\r\n                pizzas[i].dna == _dna\r\n            ) {\r\n                result = false;\r\n            }\r\n        }\r\n        require(result, \"Pizza with such name already exists.\");\r\n        _;\r\n    }\r\n\r\n    // Returns whether the target address is a contract\r\n    function isContract(address account) internal view returns (bool) {\r\n        uint256 size;\r\n        // Currently there is no better way to check if there is a contract in an address\r\n        // than to check the size of the code at that address.\r\n        // See https://ethereum.stackexchange.com/a/14016/36603\r\n        // for more details about how this works.\r\n        // TODO Check this again before the Serenity release, because all addresses will be\r\n        // contracts then.\r\n        // solium-disable-next-line security/no-inline-assembly\r\n        assembly {\r\n            size := extcodesize(account)\r\n        }\r\n        return size > 0;\r\n    }\r\n}\r\n",
  "sourcePath": "C:/Users/ealmario/Documents/Portfolio Stuff/Outplay Games/game3.js/contracts/CryptoPizza.sol",
  "compiler": {
    "name": "solc",
    "version": "0.6.4+commit.1dca32f3.Emscripten.clang"
  },
  "schemaVersion": "3.2.2",
  "updatedAt": "2020-09-29T09:37:56.556Z",
  "devdoc": {
    "methods": {
      "supportsInterface(bytes4)": {
        "details": "See {IERC165-supportsInterface}.     * Time complexity O(1), guaranteed to always use less than 30 000 gas."
      }
    }
  },
  "userdoc": {
    "methods": {
      "safeTransferFrom(address,address,uint256)": {
        "notice": "Safely transfers the ownership of a given token ID to another address If the target address is a contract, it must implement `onERC721Received`, which is called upon a safe transfer, and return the magic value `bytes4(keccak256(\"onERC721Received(address,address,uint256,bytes)\"))`; otherwise, the transfer is reverted."
      },
      "safeTransferFrom(address,address,uint256,bytes)": {
        "notice": "Safely transfers the ownership of a given token ID to another address If the target address is a contract, it must implement `onERC721Received`, which is called upon a safe transfer, and return the magic value `bytes4(keccak256(\"onERC721Received(address,address,uint256,bytes)\"))`; otherwise, the transfer is reverted."
      }
    }
  }
}