{
  "contractName": "Token",
  "abi": [
    {
      "inputs": [],
      "stateMutability": "nonpayable",
      "type": "constructor"
    },
    {
      "anonymous": false,
      "inputs": [
        {
          "indexed": false,
          "internalType": "address",
          "name": "from",
          "type": "address"
        },
        {
          "indexed": false,
          "internalType": "address",
          "name": "to",
          "type": "address"
        },
        {
          "indexed": false,
          "internalType": "uint256",
          "name": "amount",
          "type": "uint256"
        }
      ],
      "name": "Transfer",
      "type": "event"
    },
    {
      "inputs": [
        {
          "internalType": "address",
          "name": "",
          "type": "address"
        }
      ],
      "name": "balances",
      "outputs": [
        {
          "internalType": "uint256",
          "name": "",
          "type": "uint256"
        }
      ],
      "stateMutability": "view",
      "type": "function"
    },
    {
      "inputs": [],
      "name": "owner",
      "outputs": [
        {
          "internalType": "address",
          "name": "",
          "type": "address"
        }
      ],
      "stateMutability": "view",
      "type": "function"
    },
    {
      "inputs": [
        {
          "internalType": "address",
          "name": "receiver",
          "type": "address"
        },
        {
          "internalType": "uint256",
          "name": "amount",
          "type": "uint256"
        }
      ],
      "name": "mint",
      "outputs": [],
      "stateMutability": "nonpayable",
      "type": "function"
    },
    {
      "inputs": [
        {
          "internalType": "address",
          "name": "receiver",
          "type": "address"
        },
        {
          "internalType": "uint256",
          "name": "amount",
          "type": "uint256"
        }
      ],
      "name": "transfer",
      "outputs": [],
      "stateMutability": "nonpayable",
      "type": "function"
    }
  ],
  "bytecode": "0x608060405234801561001057600080fd5b50336000806101000a81548173ffffffffffffffffffffffffffffffffffffffff021916908373ffffffffffffffffffffffffffffffffffffffff160217905550610595806100606000396000f3fe608060405234801561001057600080fd5b506004361061004c5760003560e01c806327e235e31461005157806340c10f19146100a95780638da5cb5b146100f7578063a9059cbb14610141575b600080fd5b6100936004803603602081101561006757600080fd5b81019080803573ffffffffffffffffffffffffffffffffffffffff16906020019092919050505061018f565b6040518082815260200191505060405180910390f35b6100f5600480360360408110156100bf57600080fd5b81019080803573ffffffffffffffffffffffffffffffffffffffff169060200190929190803590602001909291905050506101a7565b005b6100ff610348565b604051808273ffffffffffffffffffffffffffffffffffffffff1673ffffffffffffffffffffffffffffffffffffffff16815260200191505060405180910390f35b61018d6004803603604081101561015757600080fd5b81019080803573ffffffffffffffffffffffffffffffffffffffff1690602001909291908035906020019092919050505061036d565b005b60016020528060005260406000206000915090505481565b6000809054906101000a900473ffffffffffffffffffffffffffffffffffffffff1673ffffffffffffffffffffffffffffffffffffffff163373ffffffffffffffffffffffffffffffffffffffff1614610269576040517f08c379a00000000000000000000000000000000000000000000000000000000081526004018080602001828103825260168152602001807f596f7520617265206e6f7420746865206f776e65722e0000000000000000000081525060200191505060405180910390fd5b789f4f2726179a224501d762422c946590d9100000000000000081106102f7576040517f08c379a000000000000000000000000000000000000000000000000000000000815260040180806020018281038252601a8152602001807f4d6178696d756d2069737375616e63652073756363656564656400000000000081525060200191505060405180910390fd5b80600160008473ffffffffffffffffffffffffffffffffffffffff1673ffffffffffffffffffffffffffffffffffffffff168152602001908152602001600020600082825401925050819055505050565b6000809054906101000a900473ffffffffffffffffffffffffffffffffffffffff1681565b600160003373ffffffffffffffffffffffffffffffffffffffff1673ffffffffffffffffffffffffffffffffffffffff16815260200190815260200160002054811115610422576040517f08c379a00000000000000000000000000000000000000000000000000000000081526004018080602001828103825260158152602001807f496e73756666696369656e742062616c616e63652e000000000000000000000081525060200191505060405180910390fd5b80600160003373ffffffffffffffffffffffffffffffffffffffff1673ffffffffffffffffffffffffffffffffffffffff1681526020019081526020016000206000828254039250508190555080600160008473ffffffffffffffffffffffffffffffffffffffff1673ffffffffffffffffffffffffffffffffffffffff168152602001908152602001600020600082825401925050819055507fddf252ad1be2c89b69c2b068fc378daa952ba7f163c4a11628f55a4df523b3ef338383604051808473ffffffffffffffffffffffffffffffffffffffff1673ffffffffffffffffffffffffffffffffffffffff1681526020018373ffffffffffffffffffffffffffffffffffffffff1673ffffffffffffffffffffffffffffffffffffffff168152602001828152602001935050505060405180910390a1505056fea2646970667358221220ff636870b922566ad82dbbab3fdc67dad792bd8cd70ff0407e2cad098817a80464736f6c63430006040033",
  "source": "pragma solidity ^0.6.0;\r\n\r\ncontract Token {\r\n    // An `address` is comparable to an email address - it's used to identify an account on Ethereum.\r\n    // Addresses can represent a smart contract or an external (user) accounts.\r\n    // Learn more: https://solidity.readthedocs.io/en/v0.5.10/types.html#address\r\n    address public owner;\r\n\r\n    // A `mapping` is essentially a hash table data structure.\r\n    // This `mapping` assigns an unsigned integer (the token balance) to an address (the token holder).\r\n    // Learn more: https://solidity.readthedocs.io/en/v0.5.10/types.html#mapping-types\r\n    mapping (address => uint) public balances;\r\n\r\n    // Events allow for logging of activity on the blockchain.\r\n    // Ethereum clients can listen for events in order to react to contract state changes.\r\n    // Learn more: https://solidity.readthedocs.io/en/v0.5.10/contracts.html#events\r\n    event Transfer(address from, address to, uint amount);\r\n\r\n    // Initializes the contract's data, setting the `owner`\r\n    // to the address of the contract creator.\r\n    constructor() public {\r\n        // All smart contracts rely on external transactions to trigger its functions.\r\n        // `msg` is a global variable that includes relevant data on the given transaction,\r\n        // such as the address of the sender and the ETH value included in the transaction.\r\n        // Learn more: https://solidity.readthedocs.io/en/v0.5.10/units-and-global-variables.html#block-and-transaction-properties\r\n        owner = msg.sender;\r\n    }\r\n\r\n    // Creates an amount of new tokens and sends them to an address.\r\n    function mint(address receiver, uint amount) public {\r\n        // `require` is a control structure used to enforce certain conditions.\r\n        // If a `require` statement evaluates to `false`, an exception is triggered,\r\n        // which reverts all changes made to the state during the current call.\r\n        // Learn more: https://solidity.readthedocs.io/en/v0.5.10/control-structures.html#error-handling-assert-require-revert-and-exceptions\r\n\r\n        // Only the contract owner can call this function\r\n        require(msg.sender == owner, \"You are not the owner.\");\r\n\r\n        // Ensures a maximum amount of tokens\r\n        require(amount < 1e60, \"Maximum issuance succeeded\");\r\n\r\n        // Increases the balance of `receiver` by `amount`\r\n        balances[receiver] += amount;\r\n    }\r\n\r\n    // Sends an amount of existing tokens from any caller to an address.\r\n    function transfer(address receiver, uint amount) public {\r\n        // The sender must have enough tokens to send\r\n        require(amount <= balances[msg.sender], \"Insufficient balance.\");\r\n\r\n        // Adjusts token balances of the two addresses\r\n        balances[msg.sender] -= amount;\r\n        balances[receiver] += amount;\r\n\r\n        // Emits the event defined earlier\r\n        emit Transfer(msg.sender, receiver, amount);\r\n    }\r\n}\r\n",
  "sourcePath": "C:/Users/ealmario/Documents/Portfolio Stuff/Outplay Games/game3.js/contracts/Token.sol",
  "compiler": {
    "name": "solc",
    "version": "0.6.4+commit.1dca32f3.Emscripten.clang"
  },
  "schemaVersion": "3.2.2",
  "updatedAt": "2020-09-29T09:37:56.573Z",
  "devdoc": {
    "methods": {}
  },
  "userdoc": {
    "methods": {}
  }
}