{
  "contractName": "Tournaments",
  "abi": [
    {
      "anonymous": false,
      "inputs": [
        {
          "indexed": true,
          "internalType": "address",
          "name": "previousOwner",
          "type": "address"
        },
        {
          "indexed": true,
          "internalType": "address",
          "name": "newOwner",
          "type": "address"
        }
      ],
      "name": "OwnershipTransferred",
      "type": "event"
    },
    {
      "anonymous": false,
      "inputs": [
        {
          "indexed": false,
          "internalType": "uint256",
          "name": "tournamentId",
          "type": "uint256"
        },
        {
          "indexed": false,
          "internalType": "uint256",
          "name": "resultId",
          "type": "uint256"
        },
        {
          "indexed": true,
          "internalType": "address",
          "name": "player",
          "type": "address"
        },
        {
          "indexed": false,
          "internalType": "uint256",
          "name": "amount",
          "type": "uint256"
        }
      ],
      "name": "PrizeTransfered",
      "type": "event"
    },
    {
      "anonymous": false,
      "inputs": [
        {
          "indexed": false,
          "internalType": "uint256",
          "name": "tournamentId",
          "type": "uint256"
        },
        {
          "indexed": true,
          "internalType": "address",
          "name": "player",
          "type": "address"
        },
        {
          "indexed": true,
          "internalType": "uint256",
          "name": "resultId",
          "type": "uint256"
        }
      ],
      "name": "ResultSubmitted",
      "type": "event"
    },
    {
      "anonymous": false,
      "inputs": [
        {
          "indexed": false,
          "internalType": "uint256",
          "name": "tournamentId",
          "type": "uint256"
        }
      ],
      "name": "TournamentActivated",
      "type": "event"
    },
    {
      "anonymous": false,
      "inputs": [
        {
          "indexed": false,
          "internalType": "uint256",
          "name": "tournamentId",
          "type": "uint256"
        }
      ],
      "name": "TournamentCreated",
      "type": "event"
    },
    {
      "anonymous": false,
      "inputs": [
        {
          "indexed": false,
          "internalType": "uint256",
          "name": "tournamentId",
          "type": "uint256"
        }
      ],
      "name": "TournamentNewBuyIn",
      "type": "event"
    },
    {
      "anonymous": false,
      "inputs": [
        {
          "indexed": false,
          "internalType": "uint256",
          "name": "tournamentId",
          "type": "uint256"
        }
      ],
      "name": "TournamentStopped",
      "type": "event"
    },
    {
      "anonymous": false,
      "inputs": [
        {
          "indexed": false,
          "internalType": "uint256",
          "name": "tournamentId",
          "type": "uint256"
        },
        {
          "indexed": false,
          "internalType": "uint256[]",
          "name": "resultId",
          "type": "uint256[]"
        }
      ],
      "name": "WinnersDeclared",
      "type": "event"
    },
    {
      "anonymous": false,
      "inputs": [
        {
          "indexed": false,
          "internalType": "uint256",
          "name": "tournamentId",
          "type": "uint256"
        },
        {
          "indexed": false,
          "internalType": "address payable[]",
          "name": "resultId",
          "type": "address[]"
        }
      ],
      "name": "WinnersDeclaredByAddress",
      "type": "event"
    },
    {
      "inputs": [
        {
          "internalType": "uint256",
          "name": "",
          "type": "uint256"
        },
        {
          "internalType": "address",
          "name": "",
          "type": "address"
        }
      ],
      "name": "buyIn",
      "outputs": [
        {
          "internalType": "uint256",
          "name": "",
          "type": "uint256"
        }
      ],
      "stateMutability": "view",
      "type": "function"
    },
    {
      "inputs": [],
      "name": "owner",
      "outputs": [
        {
          "internalType": "address",
          "name": "",
          "type": "address"
        }
      ],
      "stateMutability": "view",
      "type": "function"
    },
    {
      "inputs": [],
      "name": "renounceOwnership",
      "outputs": [],
      "stateMutability": "nonpayable",
      "type": "function"
    },
    {
      "inputs": [
        {
          "internalType": "uint256",
          "name": "",
          "type": "uint256"
        },
        {
          "internalType": "uint256",
          "name": "",
          "type": "uint256"
        }
      ],
      "name": "results",
      "outputs": [
        {
          "internalType": "uint256",
          "name": "winner",
          "type": "uint256"
        },
        {
          "internalType": "address payable",
          "name": "player",
          "type": "address"
        },
        {
          "internalType": "string",
          "name": "data",
          "type": "string"
        }
      ],
      "stateMutability": "view",
      "type": "function"
    },
    {
      "inputs": [
        {
          "internalType": "uint256",
          "name": "",
          "type": "uint256"
        },
        {
          "internalType": "address",
          "name": "",
          "type": "address"
        },
        {
          "internalType": "uint256",
          "name": "",
          "type": "uint256"
        }
      ],
      "name": "resultsPlayerMap",
      "outputs": [
        {
          "internalType": "uint256",
          "name": "",
          "type": "uint256"
        }
      ],
      "stateMutability": "view",
      "type": "function"
    },
    {
      "inputs": [
        {
          "internalType": "uint256",
          "name": "",
          "type": "uint256"
        }
      ],
      "name": "totalShares",
      "outputs": [
        {
          "internalType": "uint256",
          "name": "",
          "type": "uint256"
        }
      ],
      "stateMutability": "view",
      "type": "function"
    },
    {
      "inputs": [
        {
          "internalType": "uint256",
          "name": "",
          "type": "uint256"
        }
      ],
      "name": "tournaments",
      "outputs": [
        {
          "internalType": "address payable",
          "name": "organizer",
          "type": "address"
        },
        {
          "internalType": "uint256",
          "name": "endTime",
          "type": "uint256"
        },
        {
          "internalType": "string",
          "name": "data",
          "type": "string"
        },
        {
          "internalType": "uint256",
          "name": "prize",
          "type": "uint256"
        },
        {
          "internalType": "uint256",
          "name": "buyInAmount",
          "type": "uint256"
        },
        {
          "internalType": "uint256",
          "name": "triesPerBuyIn",
          "type": "uint256"
        },
        {
          "internalType": "enum Tournaments.TournamentState",
          "name": "state",
          "type": "uint8"
        },
        {
          "internalType": "uint256",
          "name": "balance",
          "type": "uint256"
        }
      ],
      "stateMutability": "view",
      "type": "function"
    },
    {
      "inputs": [
        {
          "internalType": "address",
          "name": "newOwner",
          "type": "address"
        }
      ],
      "name": "transferOwnership",
      "outputs": [],
      "stateMutability": "nonpayable",
      "type": "function"
    },
    {
      "inputs": [
        {
          "internalType": "uint256",
          "name": "",
          "type": "uint256"
        },
        {
          "internalType": "uint256",
          "name": "",
          "type": "uint256"
        }
      ],
      "name": "winnerShares",
      "outputs": [
        {
          "internalType": "uint256",
          "name": "",
          "type": "uint256"
        }
      ],
      "stateMutability": "view",
      "type": "function"
    },
    {
      "inputs": [
        {
          "internalType": "address payable",
          "name": "organizer",
          "type": "address"
        },
        {
          "internalType": "uint256",
          "name": "endTime",
          "type": "uint256"
        },
        {
          "internalType": "string",
          "name": "data",
          "type": "string"
        },
        {
          "internalType": "uint256",
          "name": "prize",
          "type": "uint256"
        },
        {
          "internalType": "uint256[]",
          "name": "shares",
          "type": "uint256[]"
        },
        {
          "internalType": "uint256",
          "name": "buyInAmount",
          "type": "uint256"
        },
        {
          "internalType": "uint256",
          "name": "triesPerBuyIn",
          "type": "uint256"
        }
      ],
      "name": "createTournament",
      "outputs": [
        {
          "internalType": "uint256",
          "name": "",
          "type": "uint256"
        }
      ],
      "stateMutability": "nonpayable",
      "type": "function"
    },
    {
      "inputs": [
        {
          "internalType": "uint256",
          "name": "tournamentId",
          "type": "uint256"
        },
        {
          "internalType": "uint256",
          "name": "value",
          "type": "uint256"
        }
      ],
      "name": "activateTournament",
      "outputs": [],
      "stateMutability": "payable",
      "type": "function"
    },
    {
      "inputs": [
        {
          "internalType": "uint256",
          "name": "tournamentId",
          "type": "uint256"
        },
        {
          "internalType": "uint256",
          "name": "value",
          "type": "uint256"
        }
      ],
      "name": "payBuyIn",
      "outputs": [],
      "stateMutability": "payable",
      "type": "function"
    },
    {
      "inputs": [
        {
          "internalType": "uint256",
          "name": "tournamentId",
          "type": "uint256"
        },
        {
          "internalType": "string",
          "name": "data",
          "type": "string"
        }
      ],
      "name": "submitResult",
      "outputs": [],
      "stateMutability": "nonpayable",
      "type": "function"
    },
    {
      "inputs": [
        {
          "internalType": "uint256",
          "name": "tournamentId",
          "type": "uint256"
        },
        {
          "internalType": "address payable[]",
          "name": "playerIds",
          "type": "address[]"
        }
      ],
      "name": "declareWinnersByPlayerId",
      "outputs": [],
      "stateMutability": "nonpayable",
      "type": "function"
    },
    {
      "inputs": [
        {
          "internalType": "uint256",
          "name": "tournamentId",
          "type": "uint256"
        },
        {
          "internalType": "uint256",
          "name": "place",
          "type": "uint256"
        }
      ],
      "name": "calcPrizeShareByIndex",
      "outputs": [
        {
          "internalType": "uint256",
          "name": "",
          "type": "uint256"
        }
      ],
      "stateMutability": "view",
      "type": "function"
    },
    {
      "inputs": [
        {
          "internalType": "uint256",
          "name": "tournamentId",
          "type": "uint256"
        },
        {
          "internalType": "uint256[]",
          "name": "resultIds",
          "type": "uint256[]"
        }
      ],
      "name": "declareWinners",
      "outputs": [],
      "stateMutability": "nonpayable",
      "type": "function"
    },
    {
      "inputs": [
        {
          "internalType": "uint256",
          "name": "tournamentId",
          "type": "uint256"
        }
      ],
      "name": "cancelTournament",
      "outputs": [],
      "stateMutability": "nonpayable",
      "type": "function"
    },
    {
      "inputs": [
        {
          "internalType": "uint256",
          "name": "tournamentId",
          "type": "uint256"
        }
      ],
      "name": "getTournament",
      "outputs": [
        {
          "internalType": "address",
          "name": "",
          "type": "address"
        },
        {
          "internalType": "uint256",
          "name": "",
          "type": "uint256"
        },
        {
          "internalType": "uint256",
          "name": "",
          "type": "uint256"
        },
        {
          "internalType": "uint256",
          "name": "",
          "type": "uint256"
        },
        {
          "internalType": "uint256",
          "name": "",
          "type": "uint256"
        },
        {
          "internalType": "string",
          "name": "",
          "type": "string"
        }
      ],
      "stateMutability": "view",
      "type": "function"
    },
    {
      "inputs": [
        {
          "internalType": "uint256",
          "name": "tournamentId",
          "type": "uint256"
        },
        {
          "internalType": "uint256",
          "name": "resultId",
          "type": "uint256"
        }
      ],
      "name": "getResult",
      "outputs": [
        {
          "internalType": "uint256",
          "name": "",
          "type": "uint256"
        },
        {
          "internalType": "address",
          "name": "",
          "type": "address"
        },
        {
          "internalType": "string",
          "name": "",
          "type": "string"
        }
      ],
      "stateMutability": "view",
      "type": "function"
    },
    {
      "inputs": [],
      "name": "getTournamentsCount",
      "outputs": [
        {
          "internalType": "uint256",
          "name": "",
          "type": "uint256"
        }
      ],
      "stateMutability": "view",
      "type": "function"
    },
    {
      "inputs": [
        {
          "internalType": "uint256",
          "name": "tournamentId",
          "type": "uint256"
        }
      ],
      "name": "getResultsCount",
      "outputs": [
        {
          "internalType": "uint256",
          "name": "",
          "type": "uint256"
        }
      ],
      "stateMutability": "view",
      "type": "function"
    },
    {
      "inputs": [
        {
          "internalType": "uint256",
          "name": "tournamentId",
          "type": "uint256"
        },
        {
          "internalType": "uint256",
          "name": "resultId",
          "type": "uint256"
        }
      ],
      "name": "calcPrizeShare",
      "outputs": [
        {
          "internalType": "uint256",
          "name": "",
          "type": "uint256"
        }
      ],
      "stateMutability": "view",
      "type": "function"
    },
    {
      "inputs": [
        {
          "internalType": "uint256",
          "name": "tournamentId",
          "type": "uint256"
        },
        {
          "internalType": "address",
          "name": "player",
          "type": "address"
        }
      ],
      "name": "getTriesLeft",
      "outputs": [
        {
          "internalType": "uint256",
          "name": "",
          "type": "uint256"
        }
      ],
      "stateMutability": "view",
      "type": "function"
    },
    {
      "inputs": [
        {
          "internalType": "uint256",
          "name": "tournamentId",
          "type": "uint256"
        }
      ],
      "name": "getBuyIn",
      "outputs": [
        {
          "internalType": "uint256",
          "name": "",
          "type": "uint256"
        }
      ],
      "stateMutability": "view",
      "type": "function"
    },
    {
      "inputs": [
        {
          "internalType": "uint256",
          "name": "tournamentId",
          "type": "uint256"
        }
      ],
      "name": "getMaxTries",
      "outputs": [
        {
          "internalType": "uint256",
          "name": "",
          "type": "uint256"
        }
      ],
      "stateMutability": "view",
      "type": "function"
    },
    {
      "inputs": [
        {
          "internalType": "uint256",
          "name": "tournamentId",
          "type": "uint256"
        }
      ],
      "name": "getShares",
      "outputs": [
        {
          "internalType": "uint256[]",
          "name": "",
          "type": "uint256[]"
        }
      ],
      "stateMutability": "view",
      "type": "function"
    }
  ],
  "bytecode": "0x6080604052600062000016620000ba60201b60201c565b9050806000806101000a81548173ffffffffffffffffffffffffffffffffffffffff021916908373ffffffffffffffffffffffffffffffffffffffff1602179055508073ffffffffffffffffffffffffffffffffffffffff16600073ffffffffffffffffffffffffffffffffffffffff167f8be0079c531659141344cd1fd0a4f28419497f9722a3daafe3b4186f6b6457e060405160405180910390a350620000c2565b600033905090565b6142ad80620000d26000396000f3fe6080604052600436106101815760003560e01c806380ed9994116100d1578063d38d66231161008a578063e96c8ee811610064578063e96c8ee814610cc3578063f2fde38b14610d12578063f798f01714610d63578063fcb34ecf14610df357610181565b8063d38d662314610b03578063d70c6f4e14610b7c578063def74de914610c7457610181565b806380ed99941461085b5780638c0dd79a146108935780638da5cb5b146109235780638f5fd7fb1461097a578063949f80c5146109d3578063c526b1c414610acb57610181565b80632d5602da1161013e5780635381460c116101185780635381460c146106265780636f7267b714610695578063715018a6146107255780637503e1b71461073c57610181565b80632d5602da1461048957806332432233146104b4578063467a66a5146104ef57610181565b80630490a65c1461018657806309077f46146101df57806313f2dad01461024e5780631a5bd7fc1461029d5780631faeaaf2146103a05780632af0981d146103f9575b600080fd5b34801561019257600080fd5b506101c9600480360360408110156101a957600080fd5b810190808035906020019092919080359060200190929190505050610e42565b6040518082815260200191505060405180910390f35b3480156101eb57600080fd5b506102386004803603604081101561020257600080fd5b8101908080359060200190929190803573ffffffffffffffffffffffffffffffffffffffff169060200190929190505050610ee8565b6040518082815260200191505060405180910390f35b34801561025a57600080fd5b506102876004803603602081101561027157600080fd5b8101908080359060200190929190505050610f0d565b6040518082815260200191505060405180910390f35b3480156102a957600080fd5b506102d6600480360360208110156102c057600080fd5b8101908080359060200190929190505050610f25565b604051808773ffffffffffffffffffffffffffffffffffffffff1673ffffffffffffffffffffffffffffffffffffffff16815260200186815260200185815260200184815260200183815260200180602001828103825283818151815260200191508051906020019080838360005b83811015610360578082015181840152602081019050610345565b50505050905090810190601f16801561038d5780820380516001836020036101000a031916815260200191505b5097505050505050505060405180910390f35b3480156103ac57600080fd5b506103e3600480360360408110156103c357600080fd5b810190808035906020019092919080359060200190929190505050611150565b6040518082815260200191505060405180910390f35b34801561040557600080fd5b506104876004803603604081101561041c57600080fd5b81019080803590602001909291908035906020019064010000000081111561044357600080fd5b82018360208201111561045557600080fd5b8035906020019184602083028401116401000000008311171561047757600080fd5b909192939192939050505061117e565b005b34801561049557600080fd5b5061049e6115f2565b6040518082815260200191505060405180910390f35b3480156104c057600080fd5b506104ed600480360360208110156104d757600080fd5b81019080803590602001909291905050506115ff565b005b3480156104fb57600080fd5b50610610600480360360e081101561051257600080fd5b81019080803573ffffffffffffffffffffffffffffffffffffffff169060200190929190803590602001909291908035906020019064010000000081111561055957600080fd5b82018360208201111561056b57600080fd5b8035906020019184600183028401116401000000008311171561058d57600080fd5b909192939192939080359060200190929190803590602001906401000000008111156105b857600080fd5b8201836020820111156105ca57600080fd5b803590602001918460208302840111640100000000831117156105ec57600080fd5b90919293919293908035906020019092919080359060200190929190505050611891565b6040518082815260200191505060405180910390f35b34801561063257600080fd5b5061067f6004803603604081101561064957600080fd5b8101908080359060200190929190803573ffffffffffffffffffffffffffffffffffffffff169060200190929190505050611ec1565b6040518082815260200191505060405180910390f35b3480156106a157600080fd5b506106ce600480360360208110156106b857600080fd5b8101908080359060200190929190505050611fb8565b6040518080602001828103825283818151815260200191508051906020019060200280838360005b838110156107115780820151818401526020810190506106f6565b505050509050019250505060405180910390f35b34801561073157600080fd5b5061073a6120aa565b005b34801561074857600080fd5b506107756004803603602081101561075f57600080fd5b8101908080359060200190929190505050612232565b604051808973ffffffffffffffffffffffffffffffffffffffff1673ffffffffffffffffffffffffffffffffffffffff168152602001888152602001806020018781526020018681526020018581526020018460038111156107d357fe5b60ff168152602001838152602001828103825288818151815260200191508051906020019080838360005b838110156108195780820151818401526020810190506107fe565b50505050905090810190601f1680156108465780820380516001836020036101000a031916815260200191505b50995050505050505050505060405180910390f35b6108916004803603604081101561087157600080fd5b81019080803590602001909291908035906020019092919050505061234c565b005b34801561089f57600080fd5b50610921600480360360408110156108b657600080fd5b8101908080359060200190929190803590602001906401000000008111156108dd57600080fd5b8201836020820111156108ef57600080fd5b8035906020019184600183028401116401000000008311171561091157600080fd5b90919293919293905050506126ee565b005b34801561092f57600080fd5b50610938612cb4565b604051808273ffffffffffffffffffffffffffffffffffffffff1673ffffffffffffffffffffffffffffffffffffffff16815260200191505060405180910390f35b34801561098657600080fd5b506109bd6004803603604081101561099d57600080fd5b810190808035906020019092919080359060200190929190505050612cdd565b6040518082815260200191505060405180910390f35b3480156109df57600080fd5b50610a16600480360360408110156109f657600080fd5b810190808035906020019092919080359060200190929190505050612d4c565b604051808481526020018373ffffffffffffffffffffffffffffffffffffffff1673ffffffffffffffffffffffffffffffffffffffff16815260200180602001828103825283818151815260200191508051906020019080838360005b83811015610a8e578082015181840152602081019050610a73565b50505050905090810190601f168015610abb5780820380516001836020036101000a031916815260200191505b5094505050505060405180910390f35b610b0160048036036040811015610ae157600080fd5b810190808035906020019092919080359060200190929190505050612fb7565b005b348015610b0f57600080fd5b50610b6660048036036060811015610b2657600080fd5b8101908080359060200190929190803573ffffffffffffffffffffffffffffffffffffffff16906020019092919080359060200190929190505050613419565b6040518082815260200191505060405180910390f35b348015610b8857600080fd5b50610bbf60048036036040811015610b9f57600080fd5b810190808035906020019092919080359060200190929190505050613454565b604051808481526020018373ffffffffffffffffffffffffffffffffffffffff1673ffffffffffffffffffffffffffffffffffffffff16815260200180602001828103825283818151815260200191508051906020019080838360005b83811015610c37578082015181840152602081019050610c1c565b50505050905090810190601f168015610c645780820380516001836020036101000a031916815260200191505b5094505050505060405180910390f35b348015610c8057600080fd5b50610cad60048036036020811015610c9757600080fd5b8101908080359060200190929190505050613550565b6040518082815260200191505060405180910390f35b348015610ccf57600080fd5b50610cfc60048036036020811015610ce657600080fd5b81019080803590602001909291905050506135ec565b6040518082815260200191505060405180910390f35b348015610d1e57600080fd5b50610d6160048036036020811015610d3557600080fd5b81019080803573ffffffffffffffffffffffffffffffffffffffff169060200190929190505050613690565b005b348015610d6f57600080fd5b50610df160048036036040811015610d8657600080fd5b810190808035906020019092919080359060200190640100000000811115610dad57600080fd5b820183602082011115610dbf57600080fd5b80359060200191846020830284011164010000000083111715610de157600080fd5b909192939192939050505061389d565b005b348015610dff57600080fd5b50610e2c60048036036020811015610e1657600080fd5b8101908080359060200190929190505050613ff7565b6040518082815260200191505060405180910390f35b6000806001600260008681526020019081526020016000208481548110610e6557fe5b9060005260206000209060030201600001540390506004600085815260200190815260200160002054600360008681526020019081526020016000208281548110610eac57fe5b906000526020600020015460018681548110610ec457fe5b9060005260206000209060090201600701540281610ede57fe5b0491505092915050565b6006602052816000526040600020602052806000526040600020600091509150505481565b60046020528060005260406000206000915090505481565b60008060008060006060866001805490508110610faa576040517f08c379a00000000000000000000000000000000000000000000000000000000081526004018080602001828103825260178152602001807f496e636f727265637420746f75726e616d656e7420696400000000000000000081525060200191505060405180910390fd5b60018881548110610fb757fe5b906000526020600020906009020160000160009054906101000a900473ffffffffffffffffffffffffffffffffffffffff1660018981548110610ff657fe5b90600052602060002090600902016001015460018a8154811061101557fe5b90600052602060002090600902016003015460018b8154811061103457fe5b906000526020600020906009020160060160009054906101000a900460ff16600381111561105e57fe5b60018c8154811061106b57fe5b90600052602060002090600902016007015460018d8154811061108a57fe5b9060005260206000209060090201600201859550808054600181600116156101000203166002900480601f0160208091040260200160405190810160405280929190818152602001828054600181600116156101000203166002900480156111335780601f1061110857610100808354040283529160200191611133565b820191906000526020600020905b81548152906001019060200180831161111657829003601f168201915b505050505090509650965096509650965096505091939550919395565b6003602052816000526040600020818154811061116957fe5b90600052602060002001600091509150505481565b8260018054905081106111f9576040517f08c379a00000000000000000000000000000000000000000000000000000000081526004018080602001828103825260178152602001807f496e636f727265637420746f75726e616d656e7420696400000000000000000081525060200191505060405180910390fd5b836001818154811061120757fe5b906000526020600020906009020160000160009054906101000a900473ffffffffffffffffffffffffffffffffffffffff1673ffffffffffffffffffffffffffffffffffffffff163373ffffffffffffffffffffffffffffffffffffffff16146112d9576040517f08c379a000000000000000000000000000000000000000000000000000000000815260040180806020018281038252601e8152602001807f4d75737420626520746f75726e616d656e742773206f7267616e697a6572000081525060200191505060405180910390fd5b600160038111156112e657fe5b600186815481106112f357fe5b906000526020600020906009020160060160009054906101000a900460ff16600381111561131d57fe5b148061136a57506002600381111561133157fe5b6001868154811061133e57fe5b906000526020600020906009020160060160009054906101000a900460ff16600381111561136857fe5b145b6113dc576040517f08c379a000000000000000000000000000000000000000000000000000000000815260040180806020018281038252601a8152602001807f496e636f727265637420746f75726e616d656e7420737461746500000000000081525060200191505060405180910390fd5b6000848490509050600080905060008090505b8281101561150e5760006114038983612cdd565b905087878381811061141157fe5b9050602002013573ffffffffffffffffffffffffffffffffffffffff1673ffffffffffffffffffffffffffffffffffffffff166108fc829081150290604051600060405180830381858888f19350505050158015611473573d6000803e3d6000fd5b50808301925087878381811061148557fe5b9050602002013573ffffffffffffffffffffffffffffffffffffffff1673ffffffffffffffffffffffffffffffffffffffff167f43d4eb9d592dc1e1efec098fe1771917169782880c84013257aaa6a1d93ce76c8a60008460405180848152602001838152602001828152602001935050505060405180910390a25080806001019150506113ef565b50806001888154811061151d57fe5b90600052602060002090600902016007016000828254039250508190555060036001888154811061154a57fe5b906000526020600020906009020160060160006101000a81548160ff0219169083600381111561157657fe5b02179055507ff5fae0f1bb2f1b71515f91b6b59c4db4c4ab75ab7ca211ee19d11368cb9eb78687878760405180848152602001806020018281038252848482818152602001925060200280828437600081840152601f19601f82011690508083019250505094505050505060405180910390a150505050505050565b6000600180549050905090565b80600180549050811061167a576040517f08c379a00000000000000000000000000000000000000000000000000000000081526004018080602001828103825260178152602001807f496e636f727265637420746f75726e616d656e7420696400000000000000000081525060200191505060405180910390fd5b816001818154811061168857fe5b906000526020600020906009020160000160009054906101000a900473ffffffffffffffffffffffffffffffffffffffff1673ffffffffffffffffffffffffffffffffffffffff163373ffffffffffffffffffffffffffffffffffffffff161461175a576040517f08c379a000000000000000000000000000000000000000000000000000000000815260040180806020018281038252601e8152602001807f4d75737420626520746f75726e616d656e742773206f7267616e697a6572000081525060200191505060405180910390fd5b82600180600381111561176957fe5b6001838154811061177657fe5b906000526020600020906009020160060160009054906101000a900460ff1660038111156117a057fe5b14611813576040517f08c379a000000000000000000000000000000000000000000000000000000000815260040180806020018281038252601a8152602001807f496e636f727265637420746f75726e616d656e7420737461746500000000000081525060200191505060405180910390fd5b60026001868154811061182257fe5b906000526020600020906009020160060160006101000a81548160ff0219169083600381111561184e57fe5b02179055507fec3986cf1d10c6833ae209c22b4b3b7590a7ee300f08c92427787319d25ca389856040518082815260200191505060405180910390a15050505050565b600088428111611909576040517f08c379a000000000000000000000000000000000000000000000000000000000815260040180806020018281038252600e8152602001807f496e636f72726563742074696d6500000000000000000000000000000000000081525060200191505060405180910390fd5b60018054905060018080549050011161198a576040517f08c379a00000000000000000000000000000000000000000000000000000000081526004018080602001828103825260148152602001807f546f6f206d616e7920746f75726e616d656e747300000000000000000000000081525060200191505060405180910390fd5b6000871415611a01576040517f08c379a00000000000000000000000000000000000000000000000000000000081526004018080602001828103825260168152602001807f5072697a65206d757374206e6f74206265207a65726f0000000000000000000081525060200191505060405180910390fd5b6000841415611a78576040517f08c379a000000000000000000000000000000000000000000000000000000000815260040180806020018281038252601e8152602001807f42757920696e20616d6f756e74206d757374206e6f74206265207a65726f000081525060200191505060405180910390fd5b6000831415611aef576040517f08c379a000000000000000000000000000000000000000000000000000000000815260040180806020018281038252601c8152602001807f547269657320636f756e74206d757374206e6f74206265207a65726f0000000081525060200191505060405180910390fd5b600080905060008787905090506001811015611b73576040517f08c379a000000000000000000000000000000000000000000000000000000000815260040180806020018281038252601c8152602001807f4d7573742068617665206174206c65617374206f6e652073686172650000000081525060200191505060405180910390fd5b60008090505b81811015611c2d576000898983818110611b8f57fe5b9050602002013511611c09576040517f08c379a00000000000000000000000000000000000000000000000000000000081526004018080602001828103825260198152602001807f4d757374206e6f742068617665207a65726f207368617265730000000000000081525060200191505060405180910390fd5b888882818110611c1557fe5b90506020020135830192508080600101915050611b79565b5060016040518061012001604052808f73ffffffffffffffffffffffffffffffffffffffff1681526020018e81526020018d8d8080601f016020809104026020016040519081016040528093929190818152602001838380828437600081840152601f19601f8201169050808301925050505050505081526020018b815260200188815260200187815260200160006003811115611cc757fe5b8152602001600081526020018a8a80806020026020016040519081016040528093929190818152602001838360200280828437600081840152601f19601f82011690508083019250505050505050815250908060018154018082558091505060019003906000526020600020906009020160009091909190915060008201518160000160006101000a81548173ffffffffffffffffffffffffffffffffffffffff021916908373ffffffffffffffffffffffffffffffffffffffff160217905550602082015181600101556040820151816002019080519060200190611dae9291906140a3565b50606082015181600301556080820151816004015560a0820151816005015560c08201518160060160006101000a81548160ff02191690836003811115611df157fe5b021790555060e08201518160070155610100820151816008019080519060200190611e1d929190614123565b505050878760036000600180805490500381526020019081526020016000209190611e49929190614170565b50816004600060018080549050038152602001908152602001600020819055507f113d32d0b7aec15a8c7f50af4cb42f4695e5b95524ed69519ac88d6c1f1f40f660018080549050036040518082815260200191505060405180910390a1600180805490500393505050509998505050505050505050565b60006005600084815260200190815260200160002060008373ffffffffffffffffffffffffffffffffffffffff1673ffffffffffffffffffffffffffffffffffffffff1681526020019081526020016000208054905060018481548110611f2457fe5b9060005260206000209060090201600401546006600086815260200190815260200160002060008573ffffffffffffffffffffffffffffffffffffffff1673ffffffffffffffffffffffffffffffffffffffff1681526020019081526020016000205460018681548110611f9457fe5b9060005260206000209060090201600501540281611fae57fe5b0403905092915050565b6060816001805490508110612035576040517f08c379a00000000000000000000000000000000000000000000000000000000081526004018080602001828103825260178152602001807f496e636f727265637420746f75726e616d656e7420696400000000000000000081525060200191505060405180910390fd5b6001838154811061204257fe5b906000526020600020906009020160080180548060200260200160405190810160405280929190818152602001828054801561209d57602002820191906000526020600020905b815481526020019060010190808311612089575b5050505050915050919050565b6120b261409b565b73ffffffffffffffffffffffffffffffffffffffff166000809054906101000a900473ffffffffffffffffffffffffffffffffffffffff1673ffffffffffffffffffffffffffffffffffffffff1614612173576040517f08c379a00000000000000000000000000000000000000000000000000000000081526004018080602001828103825260208152602001807f4f776e61626c653a2063616c6c6572206973206e6f7420746865206f776e657281525060200191505060405180910390fd5b600073ffffffffffffffffffffffffffffffffffffffff166000809054906101000a900473ffffffffffffffffffffffffffffffffffffffff1673ffffffffffffffffffffffffffffffffffffffff167f8be0079c531659141344cd1fd0a4f28419497f9722a3daafe3b4186f6b6457e060405160405180910390a360008060006101000a81548173ffffffffffffffffffffffffffffffffffffffff021916908373ffffffffffffffffffffffffffffffffffffffff160217905550565b6001818154811061223f57fe5b90600052602060002090600902016000915090508060000160009054906101000a900473ffffffffffffffffffffffffffffffffffffffff1690806001015490806002018054600181600116156101000203166002900480601f0160208091040260200160405190810160405280929190818152602001828054600181600116156101000203166002900480156123175780601f106122ec57610100808354040283529160200191612317565b820191906000526020600020905b8154815290600101906020018083116122fa57829003601f168201915b5050505050908060030154908060040154908060050154908060060160009054906101000a900460ff16908060070154905088565b8160018054905081106123c7576040517f08c379a00000000000000000000000000000000000000000000000000000000081526004018080602001828103825260178152602001807f496e636f727265637420746f75726e616d656e7420696400000000000000000081525060200191505060405180910390fd5b82600181815481106123d557fe5b906000526020600020906009020160010154421061245b576040517f08c379a00000000000000000000000000000000000000000000000000000000081526004018080602001828103825260148152602001807f546f75726e616d656e742068617320656e64656400000000000000000000000081525060200191505060405180910390fd5b83600180600381111561246a57fe5b6001838154811061247757fe5b906000526020600020906009020160060160009054906101000a900460ff1660038111156124a157fe5b14612514576040517f08c379a000000000000000000000000000000000000000000000000000000000815260040180806020018281038252601a8152602001807f496e636f727265637420746f75726e616d656e7420737461746500000000000081525060200191505060405180910390fd5b8434600182021461258d576040517f08c379a00000000000000000000000000000000000000000000000000000000081526004018080602001828103825260188152602001807f496e636f7272656e74207061796d656e7420616d6f756e74000000000000000081525060200191505060405180910390fd5b8634600180838154811061259d57fe5b9060005260206000209060090201600401540214612623576040517f08c379a00000000000000000000000000000000000000000000000000000000081526004018080602001828103825260178152602001807f496e636f7272656e742062757920696e20616d6f756e7400000000000000000081525060200191505060405180910390fd5b86600660008a815260200190815260200160002060003373ffffffffffffffffffffffffffffffffffffffff1673ffffffffffffffffffffffffffffffffffffffff16815260200190815260200160002060008282540192505081905550866001898154811061268f57fe5b9060005260206000209060090201600701600082825401925050819055507f5784d5ca74f5be9045edd8336bca26b539c1ff9504c2a541fb291e69c5470dd6886040518082815260200191505060405180910390a15050505050505050565b826001805490508110612769576040517f08c379a00000000000000000000000000000000000000000000000000000000081526004018080602001828103825260178152602001807f496e636f727265637420746f75726e616d656e7420696400000000000000000081525060200191505060405180910390fd5b83600260008281526020019081526020016000208054905060016002600084815260200190815260200160002080549050011161280e576040517f08c379a00000000000000000000000000000000000000000000000000000000081526004018080602001828103825260108152602001807f546f6f206d616e7920726573756c74730000000000000000000000000000000081525060200191505060405180910390fd5b84600180600381111561281d57fe5b6001838154811061282a57fe5b906000526020600020906009020160060160009054906101000a900460ff16600381111561285457fe5b146128c7576040517f08c379a000000000000000000000000000000000000000000000000000000000815260040180806020018281038252601a8152602001807f496e636f727265637420746f75726e616d656e7420737461746500000000000081525060200191505060405180910390fd5b86600181815481106128d557fe5b906000526020600020906009020160010154421061295b576040517f08c379a00000000000000000000000000000000000000000000000000000000081526004018080602001828103825260148152602001807f546f75726e616d656e742068617320656e64656400000000000000000000000081525060200191505060405180910390fd5b876001818154811061296957fe5b906000526020600020906009020160000160009054906101000a900473ffffffffffffffffffffffffffffffffffffffff1673ffffffffffffffffffffffffffffffffffffffff163373ffffffffffffffffffffffffffffffffffffffff161415612a1f576040517f08c379a00000000000000000000000000000000000000000000000000000000081526004018080602001828103825260228152602001806142566022913960400191505060405180910390fd5b88336000612a2d8383611ec1565b11612aa0576040517f08c379a00000000000000000000000000000000000000000000000000000000081526004018080602001828103825260118152602001807f4d6178207472696573207265616368656400000000000000000000000000000081525060200191505060405180910390fd5b600260008c81526020019081526020016000206040518060600160405280600081526020013373ffffffffffffffffffffffffffffffffffffffff1681526020018c8c8080601f016020809104026020016040519081016040528093929190818152602001838380828437600081840152601f19601f8201169050808301925050505050505081525090806001815401808255809150506001900390600052602060002090600302016000909190919091506000820151816000015560208201518160010160006101000a81548173ffffffffffffffffffffffffffffffffffffffff021916908373ffffffffffffffffffffffffffffffffffffffff1602179055506040820151816002019080519060200190612bbf9291906140a3565b50505060006001600260008e815260200190815260200160002080549050039050600560008d815260200190815260200160002060003373ffffffffffffffffffffffffffffffffffffffff1673ffffffffffffffffffffffffffffffffffffffff168152602001908152602001600020819080600181540180825580915050600190039060005260206000200160009091909190915055803373ffffffffffffffffffffffffffffffffffffffff167f9e2f3f517d16a95f6c08f150a2ac3929dca746faa828baab0d69ebd0d7a4daf38e6040518082815260200191505060405180910390a3505050505050505050505050565b60008060009054906101000a900473ffffffffffffffffffffffffffffffffffffffff16905090565b60006004600084815260200190815260200160002054600360008581526020019081526020016000208381548110612d1157fe5b906000526020600020015460018581548110612d2957fe5b9060005260206000209060090201600701540281612d4357fe5b04905092915050565b6000806060846001805490508110612dcc576040517f08c379a00000000000000000000000000000000000000000000000000000000081526004018080602001828103825260178152602001807f496e636f727265637420746f75726e616d656e7420696400000000000000000081525060200191505060405180910390fd5b858560026000838152602001908152602001600020805490508110612e59576040517f08c379a00000000000000000000000000000000000000000000000000000000081526004018080602001828103825260138152602001807f496e636f727265637420726573756c742049640000000000000000000000000081525060200191505060405180910390fd5b600260008981526020019081526020016000208781548110612e7757fe5b906000526020600020906003020160000154600260008a81526020019081526020016000208881548110612ea757fe5b906000526020600020906003020160010160009054906101000a900473ffffffffffffffffffffffffffffffffffffffff16600260008b81526020019081526020016000208981548110612ef757fe5b9060005260206000209060030201600201819150808054600181600116156101000203166002900480601f016020809104026020016040519081016040528092919081815260200182805460018160011615610100020316600290048015612fa05780601f10612f7557610100808354040283529160200191612fa0565b820191906000526020600020905b815481529060010190602001808311612f8357829003601f168201915b505050505090509550955095505050509250925092565b816001805490508110613032576040517f08c379a00000000000000000000000000000000000000000000000000000000081526004018080602001828103825260178152602001807f496e636f727265637420746f75726e616d656e7420696400000000000000000081525060200191505060405180910390fd5b826001818154811061304057fe5b90600052602060002090600902016001015442106130c6576040517f08c379a00000000000000000000000000000000000000000000000000000000081526004018080602001828103825260148152602001807f546f75726e616d656e742068617320656e64656400000000000000000000000081525060200191505060405180910390fd5b83600181815481106130d457fe5b906000526020600020906009020160000160009054906101000a900473ffffffffffffffffffffffffffffffffffffffff1673ffffffffffffffffffffffffffffffffffffffff163373ffffffffffffffffffffffffffffffffffffffff16146131a6576040517f08c379a000000000000000000000000000000000000000000000000000000000815260040180806020018281038252601e8152602001807f4d75737420626520746f75726e616d656e742773206f7267616e697a6572000081525060200191505060405180910390fd5b8334600182021461321f576040517f08c379a00000000000000000000000000000000000000000000000000000000081526004018080602001828103825260188152602001807f496e636f7272656e74207061796d656e7420616d6f756e74000000000000000081525060200191505060405180910390fd5b85600080600381111561322e57fe5b6001838154811061323b57fe5b906000526020600020906009020160060160009054906101000a900460ff16600381111561326557fe5b146132d8576040517f08c379a000000000000000000000000000000000000000000000000000000000815260040180806020018281038252601a8152602001807f496e636f727265637420746f75726e616d656e7420737461746500000000000081525060200191505060405180910390fd5b86600189815481106132e657fe5b9060005260206000209060090201600701600082825401925050819055506001888154811061331157fe5b9060005260206000209060090201600301546001898154811061333057fe5b9060005260206000209060090201600701541015613399576040517f08c379a00000000000000000000000000000000000000000000000000000000081526004018080602001828103825260228152602001806142096022913960400191505060405180910390fd5b60018089815481106133a757fe5b906000526020600020906009020160060160006101000a81548160ff021916908360038111156133d357fe5b02179055507fb70d404d088c78508dcf565972f2bbdb8766bed8b7994c9f51c4483ab4894f8a886040518082815260200191505060405180910390a15050505050505050565b6005602052826000526040600020602052816000526040600020818154811061343e57fe5b9060005260206000200160009250925050505481565b6002602052816000526040600020818154811061346d57fe5b9060005260206000209060030201600091509150508060000154908060010160009054906101000a900473ffffffffffffffffffffffffffffffffffffffff1690806002018054600181600116156101000203166002900480601f0160208091040260200160405190810160405280929190818152602001828054600181600116156101000203166002900480156135465780601f1061351b57610100808354040283529160200191613546565b820191906000526020600020905b81548152906001019060200180831161352957829003601f168201915b5050505050905083565b60008160018054905081106135cd576040517f08c379a00000000000000000000000000000000000000000000000000000000081526004018080602001828103825260178152602001807f496e636f727265637420746f75726e616d656e7420696400000000000000000081525060200191505060405180910390fd5b6002600084815260200190815260200160002080549050915050919050565b6000816001805490508110613669576040517f08c379a00000000000000000000000000000000000000000000000000000000081526004018080602001828103825260178152602001807f496e636f727265637420746f75726e616d656e7420696400000000000000000081525060200191505060405180910390fd5b6001838154811061367657fe5b906000526020600020906009020160040154915050919050565b61369861409b565b73ffffffffffffffffffffffffffffffffffffffff166000809054906101000a900473ffffffffffffffffffffffffffffffffffffffff1673ffffffffffffffffffffffffffffffffffffffff1614613759576040517f08c379a00000000000000000000000000000000000000000000000000000000081526004018080602001828103825260208152602001807f4f776e61626c653a2063616c6c6572206973206e6f7420746865206f776e657281525060200191505060405180910390fd5b600073ffffffffffffffffffffffffffffffffffffffff168173ffffffffffffffffffffffffffffffffffffffff1614156137df576040517f08c379a00000000000000000000000000000000000000000000000000000000081526004018080602001828103825260268152602001806141e36026913960400191505060405180910390fd5b8073ffffffffffffffffffffffffffffffffffffffff166000809054906101000a900473ffffffffffffffffffffffffffffffffffffffff1673ffffffffffffffffffffffffffffffffffffffff167f8be0079c531659141344cd1fd0a4f28419497f9722a3daafe3b4186f6b6457e060405160405180910390a3806000806101000a81548173ffffffffffffffffffffffffffffffffffffffff021916908373ffffffffffffffffffffffffffffffffffffffff16021790555050565b826001805490508110613918576040517f08c379a00000000000000000000000000000000000000000000000000000000081526004018080602001828103825260178152602001807f496e636f727265637420746f75726e616d656e7420696400000000000000000081525060200191505060405180910390fd5b836001818154811061392657fe5b906000526020600020906009020160000160009054906101000a900473ffffffffffffffffffffffffffffffffffffffff1673ffffffffffffffffffffffffffffffffffffffff163373ffffffffffffffffffffffffffffffffffffffff16146139f8576040517f08c379a000000000000000000000000000000000000000000000000000000000815260040180806020018281038252601e8152602001807f4d75737420626520746f75726e616d656e742773206f7267616e697a6572000081525060200191505060405180910390fd5b84848480806020026020016040519081016040528093929190818152602001838360200280828437600081840152601f19601f820116905080830192505050505050508051600360008481526020019081526020016000208054905014613aaa576040517f08c379a000000000000000000000000000000000000000000000000000000000815260040180806020018281038252602b81526020018061422b602b913960400191505060405180910390fd5b60016003811115613ab757fe5b60018881548110613ac457fe5b906000526020600020906009020160060160009054906101000a900460ff166003811115613aee57fe5b1480613b3b575060026003811115613b0257fe5b60018881548110613b0f57fe5b906000526020600020906009020160060160009054906101000a900460ff166003811115613b3957fe5b145b613bad576040517f08c379a000000000000000000000000000000000000000000000000000000000815260040180806020018281038252601a8152602001807f496e636f727265637420746f75726e616d656e7420737461746500000000000081525060200191505060405180910390fd5b6000868690509050600080905060008090505b82811015613f1157600260008b815260200190815260200160002080549050898983818110613beb57fe5b9050602002013510613c65576040517f08c379a00000000000000000000000000000000000000000000000000000000081526004018080602001828103825260138152602001807f496e636f727265637420726573756c742049640000000000000000000000000081525060200191505060405180910390fd5b6000600260008c81526020019081526020016000208a8a84818110613c8657fe5b9050602002013581548110613c9757fe5b90600052602060002090600302016000015414613d1c576040517f08c379a000000000000000000000000000000000000000000000000000000000815260040180806020018281038252601a8152602001807f526573756c7420697320616c726561647920612077696e6e657200000000000081525060200191505060405180910390fd5b60018101600260008c81526020019081526020016000208a8a84818110613d3f57fe5b9050602002013581548110613d5057fe5b9060005260206000209060030201600001819055506000613d838b8b8b85818110613d7757fe5b90506020020135610e42565b9050600260008c81526020019081526020016000208a8a84818110613da457fe5b9050602002013581548110613db557fe5b906000526020600020906003020160010160009054906101000a900473ffffffffffffffffffffffffffffffffffffffff1673ffffffffffffffffffffffffffffffffffffffff166108fc829081150290604051600060405180830381858888f19350505050158015613e2c573d6000803e3d6000fd5b508083019250600260008c81526020019081526020016000208a8a84818110613e5157fe5b9050602002013581548110613e6257fe5b906000526020600020906003020160010160009054906101000a900473ffffffffffffffffffffffffffffffffffffffff1673ffffffffffffffffffffffffffffffffffffffff167f43d4eb9d592dc1e1efec098fe1771917169782880c84013257aaa6a1d93ce76c8c8c8c86818110613ed857fe5b905060200201358460405180848152602001838152602001828152602001935050505060405180910390a2508080600101915050613bc0565b508060018a81548110613f2057fe5b906000526020600020906009020160070160008282540392505081905550600360018a81548110613f4d57fe5b906000526020600020906009020160060160006101000a81548160ff02191690836003811115613f7957fe5b02179055507f35bd6583eff2abd2b2390952bae9704dd582798bf4367ecd4e03fcfa5de597e089898960405180848152602001806020018281038252848482818152602001925060200280828437600081840152601f19601f82011690508083019250505094505050505060405180910390a1505050505050505050565b6000816001805490508110614074576040517f08c379a00000000000000000000000000000000000000000000000000000000081526004018080602001828103825260178152602001807f496e636f727265637420746f75726e616d656e7420696400000000000000000081525060200191505060405180910390fd5b6001838154811061408157fe5b906000526020600020906009020160050154915050919050565b600033905090565b828054600181600116156101000203166002900490600052602060002090601f016020900481019282601f106140e457805160ff1916838001178555614112565b82800160010185558215614112579182015b828111156141115782518255916020019190600101906140f6565b5b50905061411f91906141bd565b5090565b82805482825590600052602060002090810192821561415f579160200282015b8281111561415e578251825591602001919060010190614143565b5b50905061416c91906141bd565b5090565b8280548282559060005260206000209081019282156141ac579160200282015b828111156141ab578235825591602001919060010190614190565b5b5090506141b991906141bd565b5090565b6141df91905b808211156141db5760008160009055506001016141c3565b5090565b9056fe4f776e61626c653a206e6577206f776e657220697320746865207a65726f20616464726573735061796d656e7420616d6f756e74206973206c6f776572207468616e207072697a6557696e6e65727320636f756e74206d75737420626520657175616c20746f2073686172657320636f756e744d757374206e6f7420626520746f75726e616d656e742773206f7267616e697a6572a26469706673582212206477af1d485e7468a6b7fa4bdde74e6ed036eb1127b085bacf8e29df9587941064736f6c63430006040033",
  "source": "pragma solidity ^0.6.4;\r\n\r\nimport \"@openzeppelin/contracts/access/Ownable.sol\";\r\n\r\ncontract Tournaments is Ownable {\r\n  /**\r\n  `Data\r\n  */\r\n  enum TournamentState {\r\n    Draft,\r\n    Active,\r\n    Ended,\r\n    WinnersDeclared\r\n  }\r\n\r\n  struct Tournament {\r\n    address payable organizer;\r\n    uint            endTime;\r\n    string          data;\r\n    uint            prize;\r\n    uint            buyInAmount;\r\n    uint            triesPerBuyIn;\r\n    TournamentState state;\r\n    uint            balance;\r\n    uint[]          shares;\r\n  }\r\n\r\n  struct GameResult {\r\n    uint            winner;\r\n    address payable player;\r\n    string          data;\r\n  }\r\n\r\n  Tournament[] public tournaments;\r\n  // tournamentId => _\r\n  mapping(uint => GameResult[]) public results;\r\n  mapping(uint => uint[]) public winnerShares;\r\n  mapping(uint => uint) public totalShares;\r\n\r\n  // tournamentId => (player => GameResultId[]) - all Player's results for TournamentId\r\n  mapping(uint => mapping (address => uint[])) public resultsPlayerMap;\r\n  // tournamentId => (player => total buy in)\r\n  mapping(uint => mapping (address => uint)) public buyIn;\r\n\r\n  /**\r\n    Events\r\n  */\r\n  event TournamentCreated(uint tournamentId);\r\n  event TournamentActivated(uint tournamentId);\r\n  event TournamentNewBuyIn(uint tournamentId);\r\n  event ResultSubmitted(uint tournamentId, address indexed player,\r\n    uint256 indexed resultId);\r\n  event WinnersDeclared(uint tournamentId, uint256[] resultId);\r\n  event WinnersDeclaredByAddress(uint tournamentId, address payable[] resultId);\r\n  event PrizeTransfered(uint tournamentId, uint256 resultId, address indexed player, uint256 amount);\r\n  event TournamentStopped(uint tournamentId);\r\n\r\n  /**\r\n    Modifiers\r\n  */\r\n  \r\n  modifier noTournamentsOverflow(){\r\n    require((tournaments.length + 1) > tournaments.length,\r\n      \"Too many tournaments\");\r\n    _;\r\n  }\r\n\r\n  modifier noResultsOverflow(uint tournamentId){\r\n    require((results[tournamentId].length + 1) > results[tournamentId].length,\r\n      \"Too many results\");\r\n    _;\r\n  }\r\n\r\n  modifier notInPast(uint time) {\r\n    require(time > now, \"Incorrect time\");\r\n    _;\r\n  }\r\n\r\n  modifier tournamentIdIsCorrect(uint id){\r\n    require(id < tournaments.length, \"Incorrect tournament id\");\r\n    _;\r\n  }\r\n\r\n  modifier resultIdIsCorrect(uint tournamentId, uint resultId) {\r\n    require(resultId < results[tournamentId].length, \"Incorrect result Id\");\r\n    _;\r\n  }\r\n\r\n  modifier tournamentNotEnded(uint id) {\r\n    require(now < tournaments[id].endTime, \"Tournament has ended\");\r\n    _;\r\n  }\r\n\r\n  modifier enoughTriesLeft(uint id, address user) {\r\n    require(getTriesLeft(id, user) > 0, \"Max tries reached\");\r\n    _;\r\n  }\r\n\r\n  modifier onlyOrganizer(uint tournamentId) {\r\n    require(msg.sender == tournaments[tournamentId].organizer,\r\n      \"Must be tournament's organizer\");\r\n    _;\r\n  }\r\n\r\n  modifier notOrganizer(uint tournamentId) {\r\n    require(msg.sender != tournaments[tournamentId].organizer,\r\n      \"Must not be tournament's organizer\");\r\n    _;\r\n  }\r\n\r\n  modifier correctPaymentAmount(uint amount) {\r\n    require((amount * 1 wei) == msg.value,\r\n      \"Incorrent payment amount\");\r\n    _;\r\n  }\r\n\r\n  modifier correctBuyInAmount(uint tournamentId) {\r\n    require((tournaments[tournamentId].buyInAmount * 1 wei) == msg.value,\r\n      \"Incorrent buy in amount\");\r\n    _;\r\n  }\r\n\r\n  modifier correctTournamentState(uint tournamentId, TournamentState state) {\r\n    require(tournaments[tournamentId].state == state,\r\n      \"Incorrect tournament state\");\r\n    _;\r\n  }\r\n\r\n  modifier resultIsNotWinner(uint tournamentId, uint resultId) {\r\n    require(results[tournamentId][resultId].winner == 0,\r\n      \"Result is already winner\");\r\n    _;\r\n  }\r\n\r\n  modifier resultIsWinner(uint tournamentId, uint resultId) {\r\n    require(results[tournamentId][resultId].winner >= 1,\r\n      \"Result is not a winner\");\r\n    _;\r\n  }\r\n\r\n  modifier correctWinnersCount(uint tournamentId, uint[] memory resultIds) {\r\n    require(winnerShares[tournamentId].length == resultIds.length,\r\n      \"Winners count must be equal to shares count\");\r\n    _;\r\n  }\r\n\r\n  modifier enoughBalanceForPrize(uint tournamentId) {\r\n    require(tournaments[tournamentId].balance >= tournaments[tournamentId].prize,\r\n      \"Not enough tournament balance\");\r\n    _;\r\n  }\r\n\r\n  /**\r\n    Methods\r\n  */\r\n  function createTournament(\r\n    address payable     organizer,\r\n    uint                endTime,\r\n    string calldata     data,\r\n    uint256             prize,\r\n    uint256[] calldata  shares,\r\n    uint256             buyInAmount,\r\n    uint                triesPerBuyIn\r\n  )\r\n    external\r\n    notInPast(endTime)\r\n    noTournamentsOverflow()\r\n    returns (uint)\r\n  {\r\n    require(prize != 0, \"Prize must not be zero\");\r\n    require(buyInAmount != 0, \"Buy in amount must not be zero\");\r\n    require(triesPerBuyIn != 0, \"Tries count must not be zero\");\r\n\r\n    // check and claulate shares\r\n    uint total = 0;\r\n    uint sharesCount = shares.length;\r\n    require(sharesCount >= 1, \"Must have at least one share\");\r\n    for (uint i = 0; i < sharesCount; i++) {\r\n      require((shares[i]) > 0, \"Must not have zero shares\");\r\n      total += shares[i];\r\n    }\r\n\r\n    tournaments.push(Tournament(organizer, endTime, data, prize,\r\n      buyInAmount, triesPerBuyIn, TournamentState.Draft, 0, shares));\r\n\r\n    winnerShares[tournaments.length - 1] = shares;\r\n    totalShares[tournaments.length - 1] = total;\r\n\r\n    emit TournamentCreated(tournaments.length - 1);\r\n    return (tournaments.length - 1);\r\n  }\r\n\r\n  function activateTournament(uint tournamentId, uint value)\r\n    external\r\n    payable\r\n    tournamentIdIsCorrect(tournamentId)\r\n    tournamentNotEnded(tournamentId)\r\n    onlyOrganizer(tournamentId)\r\n    correctPaymentAmount(value)\r\n    correctTournamentState(tournamentId, TournamentState.Draft)\r\n  {\r\n      tournaments[tournamentId].balance += value;\r\n      require (tournaments[tournamentId].balance >= tournaments[tournamentId].prize,\r\n        \"Payment amount is lower than prize\");\r\n      tournaments[tournamentId].state = TournamentState.Active;\r\n      emit TournamentActivated(tournamentId);\r\n  }\r\n\r\n  function payBuyIn(uint tournamentId, uint value)\r\n    external\r\n    payable\r\n    tournamentIdIsCorrect(tournamentId)\r\n    tournamentNotEnded(tournamentId)\r\n    // notOrganizer(tournamentId)\r\n    correctTournamentState(tournamentId, TournamentState.Active)\r\n    correctPaymentAmount(value)\r\n    correctBuyInAmount(tournamentId)\r\n  {\r\n    buyIn[tournamentId][msg.sender] += value;\r\n    tournaments[tournamentId].balance += value;\r\n    emit TournamentNewBuyIn(tournamentId);\r\n  }\r\n\r\n  function submitResult(uint tournamentId, string calldata data)\r\n    external\r\n    tournamentIdIsCorrect(tournamentId)\r\n    noResultsOverflow(tournamentId)\r\n    correctTournamentState(tournamentId, TournamentState.Active)\r\n    tournamentNotEnded(tournamentId)\r\n    notOrganizer(tournamentId)\r\n    enoughTriesLeft(tournamentId, msg.sender)\r\n  {\r\n    results[tournamentId].push(GameResult(0, msg.sender, data));\r\n    uint resultId = results[tournamentId].length - 1;\r\n    resultsPlayerMap[tournamentId][msg.sender].push(resultId);\r\n    emit ResultSubmitted(tournamentId, msg.sender, resultId);\r\n  }\r\n\r\n  function declareWinnersByPlayerId(uint tournamentId, address payable[] calldata playerIds)\r\n    external\r\n    tournamentIdIsCorrect(tournamentId)\r\n    onlyOrganizer(tournamentId)\r\n  {\r\n    require((tournaments[tournamentId].state == TournamentState.Active) || \r\n      (tournaments[tournamentId].state == TournamentState.Ended),\r\n      \"Incorrect tournament state\");\r\n\r\n    uint resultCount = playerIds.length;\r\n    uint totalSentAmount = 0;\r\n    for (uint i = 0; i < resultCount; i++) {\r\n\r\n      // send result\r\n      uint amount = calcPrizeShareByIndex(tournamentId, i);\r\n      playerIds[i].transfer(amount);\r\n      // need to keep total balance unchanged while calculating prize shares\r\n      totalSentAmount += amount;\r\n      // resultid is unused (2nd parameter)\r\n      emit PrizeTransfered(tournamentId, 0, playerIds[i], amount);\r\n    }\r\n    tournaments[tournamentId].balance -= totalSentAmount;\r\n\r\n    tournaments[tournamentId].state = TournamentState.WinnersDeclared;\r\n    emit WinnersDeclaredByAddress(tournamentId, playerIds);\r\n  }\r\n\r\n\r\n  function calcPrizeShareByIndex(uint tournamentId, uint place)\r\n    public\r\n    view\r\n    returns (uint)\r\n  {\r\n    return tournaments[tournamentId].balance *\r\n      winnerShares[tournamentId][place] / totalShares[tournamentId];\r\n  }\r\n\r\n\r\n  function declareWinners(uint tournamentId, uint[] calldata resultIds)\r\n    external\r\n    tournamentIdIsCorrect(tournamentId)\r\n    onlyOrganizer(tournamentId)\r\n    correctWinnersCount(tournamentId, resultIds)\r\n  {\r\n    require((tournaments[tournamentId].state == TournamentState.Active) || \r\n      (tournaments[tournamentId].state == TournamentState.Ended),\r\n      \"Incorrect tournament state\");\r\n\r\n    uint resultCount = resultIds.length;\r\n    uint totalSentAmount = 0;\r\n    for (uint i = 0; i < resultCount; i++) {\r\n      require(resultIds[i] < results[tournamentId].length, \"Incorrect result Id\");\r\n      require(results[tournamentId][resultIds[i]].winner == 0, \"Result is already a winner\");\r\n\r\n      results[tournamentId][resultIds[i]].winner = i + 1;\r\n\r\n      // send result\r\n      uint amount = calcPrizeShare(tournamentId, resultIds[i]);\r\n      results[tournamentId][resultIds[i]].player.transfer(amount);\r\n      // need to keep total balance unchanged while calculating prize shares\r\n      totalSentAmount += amount;\r\n      emit PrizeTransfered(tournamentId, resultIds[i], results[tournamentId][resultIds[i]].player, amount);\r\n    }\r\n    tournaments[tournamentId].balance -= totalSentAmount;\r\n\r\n    tournaments[tournamentId].state = TournamentState.WinnersDeclared;\r\n    emit WinnersDeclared(tournamentId, resultIds);\r\n  }\r\n\r\n  function cancelTournament(uint tournamentId)\r\n    external\r\n    tournamentIdIsCorrect(tournamentId)\r\n    onlyOrganizer(tournamentId)\r\n    correctTournamentState(tournamentId, TournamentState.Active)\r\n  {\r\n    tournaments[tournamentId].state = TournamentState.Ended;\r\n\r\n    /* TODO return prize and buyIns\r\n    uint oldBalance = tournaments[tournamentId].balance;\r\n    tournaments[tournamentId].balance = 0;\r\n    if (oldBalance > 0){\r\n      tournaments[tournamentId].organizer.transfer(oldBalance);\r\n    }\r\n    */\r\n    emit TournamentStopped(tournamentId);\r\n  }\r\n\r\n  function getTournament(uint tournamentId)\r\n    public\r\n    view\r\n    tournamentIdIsCorrect(tournamentId)\r\n    returns (address, uint, uint, uint, uint, string memory)\r\n  {\r\n    return (tournaments[tournamentId].organizer,\r\n      tournaments[tournamentId].endTime,\r\n      tournaments[tournamentId].prize,\r\n      uint(tournaments[tournamentId].state),\r\n      tournaments[tournamentId].balance,\r\n      tournaments[tournamentId].data);\r\n  }\r\n\r\n  function getResult(uint tournamentId, uint resultId)\r\n    public\r\n    view\r\n    tournamentIdIsCorrect(tournamentId)\r\n    resultIdIsCorrect(tournamentId, resultId)\r\n    returns (uint, address, string memory)\r\n  {\r\n    return (results[tournamentId][resultId].winner,\r\n      results[tournamentId][resultId].player,\r\n      results[tournamentId][resultId].data);\r\n  }\r\n\r\n  function getTournamentsCount()\r\n    public\r\n    view\r\n    returns (uint)\r\n  {\r\n    return tournaments.length;\r\n  }\r\n\r\n  function getResultsCount(uint tournamentId)\r\n    public\r\n    view\r\n    tournamentIdIsCorrect(tournamentId)\r\n    returns (uint)\r\n  {\r\n    return results[tournamentId].length;\r\n  }\r\n\r\n  function calcPrizeShare(uint tournamentId, uint resultId)\r\n    public\r\n    view\r\n    returns (uint)\r\n  {\r\n    uint place = results[tournamentId][resultId].winner - 1;\r\n    return tournaments[tournamentId].balance *\r\n      winnerShares[tournamentId][place] / totalShares[tournamentId];\r\n  }\r\n\r\n  function getTriesLeft(uint tournamentId, address player)\r\n    public\r\n    view\r\n    returns (uint)\r\n  {\r\n    return (tournaments[tournamentId].triesPerBuyIn * buyIn[tournamentId][player] / \r\n      tournaments[tournamentId].buyInAmount) - resultsPlayerMap[tournamentId][player].length;\r\n  }\r\n\r\n  function getBuyIn(uint tournamentId)\r\n    public\r\n    view\r\n    tournamentIdIsCorrect(tournamentId)\r\n    returns (uint) \r\n  {\r\n    return tournaments[tournamentId].buyInAmount;\r\n  }\r\n\r\n  function getMaxTries(uint tournamentId)\r\n    public\r\n    view\r\n    tournamentIdIsCorrect(tournamentId)\r\n    returns (uint)\r\n  {\r\n    return tournaments[tournamentId].triesPerBuyIn;\r\n  }\r\n\r\n  function getShares(uint tournamentId)\r\n    public\r\n    view\r\n    tournamentIdIsCorrect(tournamentId)\r\n    returns (uint256[] memory)\r\n  {\r\n    return tournaments[tournamentId].shares;\r\n  }\r\n}\r\n",
  "sourcePath": "C:/Users/ealmario/Documents/Portfolio Stuff/Outplay Games/game3.js/contracts/Tournaments.sol",
  "compiler": {
    "name": "solc",
    "version": "0.6.4+commit.1dca32f3.Emscripten.clang"
  },
  "schemaVersion": "3.2.2",
  "updatedAt": "2020-09-29T09:37:56.585Z",
  "devdoc": {
    "methods": {
      "owner()": {
        "details": "Returns the address of the current owner."
      },
      "renounceOwnership()": {
        "details": "Leaves the contract without owner. It will not be possible to call `onlyOwner` functions anymore. Can only be called by the current owner.     * NOTE: Renouncing ownership will leave the contract without an owner, thereby removing any functionality that is only available to the owner."
      },
      "transferOwnership(address)": {
        "details": "Transfers ownership of the contract to a new account (`newOwner`). Can only be called by the current owner."
      }
    }
  },
  "userdoc": {
    "methods": {
      "createTournament(address,uint256,string,uint256,uint256[],uint256,uint256)": {
        "notice": "Methods"
      }
    }
  }
}